:020000040800F2
:10000000580A00208D010008D13200080D2E00088A
:1000100000000000000000000000000000000000E0
:100020000000000000000000000000004134000853
:100030000000000000000000D532000885390008EB
:100040009F0100089F0100089F0100089F01000810
:100050009F0100089F0100089F0100085514000837
:10006000000000009F0100089F0100089F01000898
:100070009F0100089F01000800000000553A000899
:10008000000000009F0100080000000000000000C8
:10009000353A000800000000453A00089F010008BA
:1000A0009F0100089F0100089F0100089F010008B0
:1000B0009F0100089F0100080000000000000000F0
:1000C00000F002F800F053F80CA030C808382418EB
:1000D0002D18A246671EAB4654465D46AC4201D180
:1000E00000F045F87E460F3E0FCCB646012633425F
:1000F00000D0FB1AA246AB463343184738460000EF
:1001000058460000103A02D378C878C1FAD852078E
:1001100001D330C830C101D504680C6070470000BD
:100120000023002400250026103A01D378C1FBD813
:10013000520700D330C100D50B60704710B5642959
:1001400002D100F02FF910BD732902D100F031FC6B
:1001500010BD002010BD1FB50098019900F06FFF81
:1001600000F070FC1FBD10B500F0D8FC10BD00F011
:100170003AFD1146FFF7EFFF04F064F800F030FF9E
:1001800003B4FFF7F0FF03BC01F0CAF8074880474B
:1001900007480047FEE7FEE7FEE7FEE7FEE7FEE76B
:1001A00004480549054A064B70470000313A0008EB
:1001B000C100000858040020580A002058060020FA
:1001C00058060020FEB5054610460C46184373D06D
:1001D000AE468C460020AD1A01469C4167D3664668
:1001E000002701243D46B61A9D4102D313463A46E4
:1001F0002124654676462F04360C3E432D0CB61A54
:100200009D4104D3150C1B042B4312041034654686
:1002100076462F06360A3E432D0AB61A9D4104D370
:10022000150E1B022B4312020834654676462F0733
:1002300036093E432D09B61A9D4104D3150F1B0103
:100240002B431201241D65467646AF07B6083E4390
:10025000AD08B61A9D4104D3950F9B002B43920025
:10026000A41C65467646EF0776083E436D08B61A2D
:100270009D411AD392185B41641C16E00018764623
:1002800065464941B71A9D410191009009D36046E6
:10029000B11A98418E468446009801990025401C69
:1002A0006941DD0752082A435B08641EE6D57246A1
:1002B000634603B0F0BDFFE700200146C046C046DC
:1002C0002A462346F5E700000FB4054910B503AAF6
:1002D000029800F073FB10BC08BC04B01847000083
:1002E00050030020F8B50E46044600202062204648
:1002F000E1688847002829D0252802D06268A168D3
:1003000020E0E16820460027884705001ED02846E7
:100310004138192802D80127FF02203532462046ED
:1003200027602946FFF70AFF002808D0012804D0DB
:10033000F61DF608F6000836D9E7361DD7E76268DD
:100340002846A1689047206A401CCFE7206AF8BD84
:1003500070B50C460546012A05D02878800600D5E0
:10036000EA69002302E0012305E05B1C934202D20C
:10037000E05C0028F9D1A869E618C01AA861286ACB
:10038000C01828622846C046C04604E06A68207843
:10039000A968641C9047B442F8D32846C046C046BA
:1003A00070BD0000F7B5002575291068009914A6E6
:1003B00011D0C046C046002802DA404211A608E02B
:1003C000009909688A0701D50FA602E0490704D5FC
:1003D0000EA6012501E0C046C046009F0024243738
:1003E00004E000F0FFFA30313955641C0028F8D1E0
:1003F0002B4632462146009800F070FAFEBD000000
:10040000000000002D0000002B0000002000000074
:1004100030B5441C03E00178401C00290DD0810751
:10042000F9D10B4BDD0104C8D11A91432940FAD010
:10043000001B0A0603D0C01E30BD001B30BD0A04DD
:1004400001D0801E30BD0902FCD0401E30BD00002E
:100450000101010101E004C0091F0429FBD28B073F
:1004600001D50280801CC90700D0027070470029A6
:100470000BD0C30702D00270401C491E022904D3CE
:10048000830702D50280801C891EE3E70022EEE785
:100490000022DFE7002203098B422CD3030A8B42A0
:1004A00011D300239C464EE003460B433CD400226C
:1004B00043088B4231D303098B421CD3030A8B427E
:1004C00001D394463FE0C3098B4201D3CB01C01A4C
:1004D000524183098B4201D38B01C01A5241430917
:1004E0008B4201D34B01C01A524103098B4201D305
:1004F0000B01C01A5241C3088B4201D3CB00C01A72
:10050000524183088B4201D38B00C01A52414308E9
:100510008B4201D34B00C01A5241411A00D201460E
:100520005241104670475DE0CA0F00D049420310A7
:1005300000D34042534000229C4603098B422DD3F6
:10054000030A8B4212D3FC22890112BA030A8B429E
:100550000CD3890192118B4208D3890192118B42ED
:1005600004D389013AD0921100E08909C3098B4272
:1005700001D3CB01C01A524183098B4201D38B01B5
:10058000C01A524143098B4201D34B01C01A524158
:1005900003098B4201D30B01C01A5241C3088B429D
:1005A00001D3CB00C01A524183088B4201D38B0088
:1005B000C01A5241D9D243088B4201D34B00C01A12
:1005C0005241411A00D20146634652415B10104627
:1005D00001D34042002B00D54942704763465B106F
:1005E00000D3404201B50020C046C04602BD70475E
:1005F000704770470346CA02400D10B510430A15F4
:1006000004D00124E4072043002A05DB0A4CA21A87
:1006100004D4D040FF2A00DD002010BD4A00002B8A
:1006200001D0012000E00020101801225205D04224
:10063000F2D8C817C04310BD1E0400001F22030CCF
:1006400002D10F22000402D0030E03D004E00020E8
:10065000014670470002083A030F01D10001121F42
:10066000830F01D18000921E002801DB4000521E42
:10067000120551184205C012411810467047C10FAB
:10068000C90700D04042012292071143D6E7012159
:100690008907D3E7F0B58B4C0F09254689B0BD43D8
:1006A0007BD01D092646AE43FAD00E465E40274059
:1006B000F60F3E43254071D024012142FBD0FF2498
:1006C000AD19A4042D1B039501252D05DB02DB0AC2
:1006D000C9022B43C90A29431E010901040F130F44
:1006E000050121431701880B820391432D098C4694
:1006F000A90B1E438A039543B30B9A0396433F0904
:10070000BA0B9403A74302962E467E430497B6463F
:100710004E19D7190C460196544305977E43371B53
:100720007646BF1B3601B646BE0B36190096764696
:10073000BC043719009C01D3641C00946400002F92
:1007400001D001263443029E049F754366467E43D2
:100750000496760034196E0034190094029C019EB0
:100760001C196643751BAE46069465464519059CE3
:1007700005956C43594375460891691A0191049E89
:1007800001465143A41B0491611A009C0791E106A4
:1007900005D061090122114302E072E06EE06109B7
:1007A000089D00272C0A2D066918049D7C412A0A01
:1007B0002D066918019D6241AC0DAD026D185441C2
:1007C000079A910D920255196141029A6446584365
:1007D0005443069B059A5A43121A131B9A0E9B0107
:1007E0005B187A41010B0005C3185141220A20060B
:1007F00044195A419A4200D2491C012040028142C8
:1008000003D315230226F64302E014230326F643FE
:100810002020C51AA9401746AF40DA400A432046B7
:100820000399D8400914731819055118039A3843CD
:10083000D2075140AC4009D00122944006D3002297
:10084000401C5141002C01D1400840001E4A9342F7
:1008500012D3012203989206904207DB052040073D
:1008600009181A480143C012414004E00320400720
:100870000818C10FC907002009B0F0BD0020F1071A
:10088000FAE705180C464C4111486D42A04115D3BA
:1008900094181A465A410E48644290410ED30120E2
:1008A0004A004005824209D35A00824206D3594089
:1008B000C90F084AC90700201143DDE70020064997
:1008C000DAE700000000FF07FE070000FFFFFF7FE0
:1008D0000000E0FF0000F07F0000F87FFFB5044655
:1008E0000D4681B0243000902168880604D510227E
:1008F000E0699143216000E00120A84201DD471B2F
:1009000000E000270498A1697A191018081AA0615C
:100910002078C00602D42046C046C046002608E023
:1009200003986268A168805D9047206A401C761C2D
:10093000206204988642F3DB2078C0060AD5204660
:10094000C046C04606E06268A16830209047206A31
:10095000401C206238467F1E0028F4DC07E0009827
:100960006268A168405D9047206A401C206228466A
:100970006D1E0028F3DC2046C046C04620780006E5
:1009800002D5022005B0F0BD0120FBE710B5436998
:10099000002B02D0C046C04601E0FFF7D9FC012081
:1009A00010BD1278014624310A7000224A700122DB
:1009B000ECE711680022D243E8E70000084B70B56D
:1009C0000D467B4400F027F80446284600F036F830
:1009D000002802D00020C04370BD204670BD00003A
:1009E0005F38000001468008081A02091018020A40
:1009F0001018020C1018C008820012185200891A30
:100A000001E0401C0A390A29FBD2704701694A1CDF
:100A100002610878704700B58FB0029100210591FE
:100A20000549019379440391114604906846FFF704
:100A300059FC0FB000BD0000E5FFFFFFC06880213A
:100A40000840704710B543485421FFF721FD424844
:100A50005421FFF71DFD41485421FFF719FD40487F
:100A60003C493D4B404A01603E4803603B481060B2
:100A70005A1C0A65411C1965012101653C48354A2B
:100A80003AA1784400F012FA002804D1384878449A
:100A90000C3800F0ABFA38482F4A36A1784400F001
:100AA00005FA002804D1344878440C3800F09EFA46
:100AB00032482A4A2FA1784400F0F8F9002804D1DE
:100AC0002E4878440C3800F091FA40232148DC008D
:100AD0000021224600F0C4F9002804D024487844BC
:100AE0005C3800F083FA1C4822464023002100F0C5
:100AF000B7F9002804D0204878445C3800F076FA32
:100B0000164822461023002100F0AAF9002804D03C
:100B10001A4878445C3800F069FA10BD0F4870B587
:100B2000006D44080B48640000F034FA0A4800F0F5
:100B300031FA0A4800F02EFA09E0206D45082046F7
:100B40006D0000F027FA204600F06CF82C46002CCF
:100B5000F3D170BDFC02002050030020A40300204C
:100B6000D0000020D4000020D80000207200000037
:100B7000A23C0000770000008C3C0000763C0000A6
:100B80000EB501910090FFF743FC029069460120E9
:100B9000ABBE0EBD08B5694600900220ABBE08BDD5
:100BA0001FB56B4607C369460520ABBE04B010BD38
:100BB0001FB56C460FC469460620ABBEF6E708B504
:100BC000694600900920ABBE08BD1CB500900A2004
:100BD00001916946ABBE1CBD704708B569460090DF
:100BE0000C20ABBE08BD754600F006FAAE46050007
:100BF00069465346C008C000854618B020B5FFF7C7
:100C0000CFFA60BC00274908B6460026C0C5C0C55B
:100C1000C0C5C0C5C0C5C0C5C0C5C0C5403D4900F0
:100C20008D46704770B50446051F00F0EBF900686B
:100C3000002C1AD0446801E020466468002C01D0E2
:100C4000AC42F9D301680A18AA4204D12A680546C1
:100C50008918016000E0456028684119A14205D16A
:100C60006168696021684018286070BD6C6070BD63
:100C7000F8B505460C46C8680521C904884301211A
:100C800089050843E060800602D5204600F006FB97
:100C90007149E0680140022903D0204600F0A8FA1B
:100CA000BCE00521012249030140D20391420FD14A
:100CB000C00306D56168E06A884200D808466060D3
:100CC00006E02069E06260606069FFF786FFA0616E
:100CD000A1680022EEB200290EDAE06883050BD489
:100CE000C943A1600921226049030843E0606068AC
:100CF000411C61600670ACE0E068012149030843D3
:100D0000E060002020602069002831D16069FFF791
:100D100056FF012527462437ED02002816D0A0896A
:100D20008005800F08D0E06900F0B6F90028206146
:100D300002D0E068284318E001202761E061E06804
:100D4000032109028843012189020DE0E06900F0D6
:100D5000A3F900282061EFD0E0682843E060810516
:100D6000890F03D1FF2101310843E06020696060F1
:100D7000E2683A4F2569D0051FD56168E06A88426C
:100D800000D80846411B05D02246284600F03AFA12
:100D9000002843D1E068010204D5E56200206560C7
:100DA000A06053E0691CE1626160E169491E38435B
:100DB000A160E06030462E70F8BD100201D53A40C7
:100DC00009E06068411C61600670E06838430A2EE3
:100DD000E06006D00022E16A6068814203D90B46D8
:100DE00002E00122F7E70346A7895B1B7F0504D4D5
:100DF000E7699F4201DD002A1ED0814200D80146EA
:100E00000F1A0020E5626560002BA06009DD224614
:100E10001946284600F0F6F9002802D00020C04309
:100E2000F8BD002F08D0A069E5626560C01BA06115
:100E3000E06810210843E060E068000209D56168BD
:100E4000A069E562491B40186560A0610120C043AC
:100E5000F8BD3046F8BD000082100000000001001F
:100E600070B5C468A50713D0650211D4D51FF93D2C
:100E70000AD0FF3D6D1E07D0FF3DFF3D022D07D17B
:100E800001462431012305E0074E5D1EB54201D322
:100E9000012070BD0161C36141600F2109028C43D3
:100EA0001443C460002070BDFFFFFF00F7B5164675
:100EB0000C46104600F06EF82078611C61280AD0BC
:100EC000722802D0772839D102E00125002404E0FD
:100ED0000225042401E02D4D0824022203230127CA
:100EE0000878491C2B2806D0622807D02039C87FF3
:100EF000742807D008E01D431443F1E7042005439C
:100F00003C43EDE71020044300982146FFF738FEEC
:100F1000411C13D00021316171600121F56049024B
:100F2000F1617061200704D530460222002100F0F3
:100F3000E5F8306D384330653046FEBD0020FEBD1B
:100F4000F8B50D460646124C206DC10704D0410885
:100F500004D044086400F7E7224610E0542000F073
:100F60009BF8070010D07908206D49000122114339
:100F70000843542120653846FFF78AFA3A46294645
:100F80003046FFF793FFF8BD0020F8BD0280000057
:100F9000FC020020FEB50446466900690F4F01902F
:100FA000E56800200090A80707D0204600F050F91F
:100FB0003046FFF7EFFD002801DA3846FEBD280570
:100FC00002D50198FFF72EFE4C212046FFF760FA6C
:100FD000206D4008400020650098FEBDFFFFFFFF28
:100FE0000446C046C0462046FFF7CAF810B500F0D8
:100FF0007DF900F075F910BD00487047F803002036
:101000007047000000487047000400207047704798
:101010007047704738B504460A4600206946C04606
:10102000C046002805D002462046009900F085F908
:10103000012038BD10B5012000F0D4F910BDF8B57D
:10104000C046C046054600200C461020C046064655
:10105000A819A0420DD9324669460020C046C046B4
:10106000070001D100F0BEF90098A04200D005466B
:10107000C419FFF7C7FFF61D07460560F008C0005A
:101080004619284600F052F9B44204D03146386877
:10109000A21B00F052F9F8BD70B50646FFF7B2FF8B
:1010A000056830460B30C408E400B44201D8002083
:1010B00070BD68682A46002818D00168A14211D383
:1010C0000B46214608318B4208D3436801194B6017
:1010D00003681B1B0B605160046001E041685160B4
:1010E000001D70BD024640680028E6D12146284612
:1010F000FFF790FF0028DCD170BD0000F8B5044672
:1011000016460D464769007B800730D03846FFF70A
:1011100056FD00282BD132461026002A25D0012A60
:1011200002D0022A23D104E0204600F020F945191C
:101130001BE03846FFF751FDE16831430028E160CC
:1011400004DA204600F054F80120F8BDC9030BD59D
:101150006268E16A914200D81146A2698918226941
:10116000891A814200DD08462D18002D01DA02207F
:10117000F8BDE16A6068E268814206D29103E062EC
:1011800003D5012149048A433243A669AE4211DCEA
:10119000E16A814201D90B4600E003469F192369A9
:1011A000FF1AAF4206DD814201D90F4600E0074633
:1011B0009F4206D1202002430020A060A56220604B
:1011C0000DE0AD1BE669AE1B8142A66000D9084662
:1011D000C01A281A206058196060202082430348F2
:1011E00002400020E26040342072F8BDBFCFD7FF3C
:1011F000C1688022114392039143C1600021816044
:1012000001607047F7B514460E463348D5685769F4
:10121000054209D03846A169FFF7D7FC002811DB49
:101220002D48C0430540E5602B46324638460099BC
:10123000FFF7B6FC4200A1695208B21A89180028CB
:10124000A16104D02046FFF7D3FF0020C043FEBDBC
:1012500070B504460569C06A6168884200D80846CE
:10126000E1680522D2049143E160C90314D5A84284
:1012700009D02246411B2846FFF7C4FF002802D0B0
:101280000020C04370BDE56200206560A060E0689A
:10129000012109048843E060002070BD10B50446B8
:1012A000C06820218843E060A16AA06988420ED00E
:1012B0002046FFF7CDFFE068032109038843102192
:1012C0000843E060A06AA0612069E06260600349B1
:1012D000E0680840E06010BD10000200BFBFFFFFE3
:1012E00010B5002801D000F01BF810BD10B5014664
:1012F00002A000F05DF8012010BD000053494752E4
:10130000545245443A2052656469726563743A20C8
:1013100063616E2774206F70656E3A2000000000D4
:1013200001491820ABBEFEE7260002000021016043
:101330004160806070471020704710B503464068D8
:1013400001E003464068002801D08842F9D31868BC
:10135000C3188B4206D0CB1CD808C000001D411A10
:10136000521A0146081D0A60FFF75CFC10BD10B55B
:101370000146C268900703D0900607D5886A0AE044
:1013800000F03CF801210160881E10BD8B6948689F
:10139000C0180B69C01A40310B7A002B02D0497A71
:1013A000401A10BD1103FCD50028FADD401E10BD07
:1013B00070B505460C460A2000E06D1C00F018F8D8
:1013C000002D06D028780028F7D102E0641C00F038
:1013D0000FF8002C02D020780028F7D10A2000F066
:1013E00007F870BD10B500F00DF8FFF779FF10BDDC
:1013F00008B5694608700320ABBE08BD00487047B9
:10140000F803002010B5012805D0002103A0FFF744
:10141000CFFF012010BD09A1F8E700005349475252
:10142000544D454D3A204F7574206F6620686561B4
:1014300070206D656D6F7279000000003A2048657C
:101440006170206D656D6F727920636F7272757057
:101450007465640010B50120400300F01FF80120FE
:10146000800300F01BF80120C00300F017F810BD46
:1014700072B600BFFEE70000014800687047000038
:101480007000002010B50446034801F069FA0248D4
:1014900001F030FA10BD00003401002010B5044600
:1014A000054840692040002804D003484461204694
:1014B000FFF7E8FF10BD00000004014070B50346CF
:1014C0000A46002100240020DCE001268E40156839
:1014D00035402C46002C79D01579AD07AD0F012D84
:1014E00004D01579AD07AD0F022D18D198684E00C4
:1014F0000325B5400646AE4330464E00D568B5409C
:1015000028439860586801258D400646AE43304612
:101510001026556835402D098D40284358601579AF
:10152000AD07AD0F032D0BD0D8684E000325B54095
:101530000646AE4330464E009568B5402843D86015
:101540001579AD07AD0F022D15D1CD08AE001D46A2
:101550002035A8594D07EE0E0F25B5400646AE437F
:1015600030464E07F60E1569B5402843CD08AD004C
:101570001E462036705118684E000325B5400646B9
:10158000AE4330461579AD07AD0F4E00B540284348
:1015900018600326360455683540002D71D03C4D47
:1015A0006D6B012635433A4E75633A4D8E08B60091
:1015B000A8598D072E0F0F25B5400646AE4330467D
:1015C00005252D07AB4202D1002515E059E0324D2B
:1015D000AB4201D101250FE0304DAB4201D10225D4
:1015E0000AE02F4DAB4201D1032505E02D4DAB4262
:1015F00001D1052500E006258E07360FB5402843AA
:10160000244D8E08B600A851274D28680546A543ED
:1016100028460126360455683540002D02D005467F
:1016200025432846204D286068680546A54328467E
:101630000126760455683540002D02D00546254325
:101640002846194D6860A8680546A5432846012626
:10165000360555683540002D02D0054625432846FD
:10166000114DA860E8680546A54328460126760581
:1016700055683540002D02D00546254328460A4DC1
:10168000E860491C1568CD40002D00D01DE770BDF5
:101690000010024008000140000400500008005003
:1016A000000C0050001C0050000401400246136969
:1016B0000B40002B01D0012000E00020704710B546
:1016C000426913460B401B040C4694432343836139
:1016D00010BD002A01D0816100E0816270470000E6
:1016E000014800687047000074000020034800684B
:1016F00003490978401801490860704774000020C8
:101700007C00002010B500240848006840210843F0
:1017100006490860032000F00BF8002801D00124DE
:1017200001E000F05DF8204610BD000000200240FE
:10173000F0B587B0044600222146142000F06EF870
:10174000142000F05DF82048406B042108431E4936
:101750004863694602A800F099FA0698019001983A
:10176000002803D100F0CCFA064602E000F0C8FAE7
:10177000460000F0C5FA064614493046FEF78AFED8
:10178000471E13481349086013491248C160476057
:1017900000210161816001F057F80546002D10D14C
:1017A0000C4801F0A7F80546002D0AD1042C07D2F9
:1017B00000222146142000F031F80848046000E0BF
:1017C0000125284607B0F0BD0010024040420F003E
:1017D00000080140BC020020E70300007800002060
:1017E0000648406B01210843044948630846806B62
:1017F0000904084301498863704700000010024053
:101800000146002905DBCB06DB0E01229A40024B84
:101810001A6000BF7047000000E100E070B50446A8
:101820000D4616462946204602F094FC70BD000085
:10183000F8B50446002720212068084020287BD1E5
:1018400020680840202800D100BF8048806B01211B
:1018500009070840002805D17C48806B08437B4974
:10186000886301277A480068FF2101310840002879
:1018700016D177480068084375490860FFF730FFC4
:10188000064606E0FFF72CFF801B642801D90320E1
:10189000F8BD6F480068FF21013108400028F1D0F1
:1018A0006A480568032109050D4060680840A842A0
:1018B0000DD0091160680840884208D1634800686B
:1018C000012149040840884201D10120E0E75F4836
:1018D000403000690321090408400546002D3DD031
:1018E00060680840A84239D020212068084020289C
:1018F00034D1564840300069032109048843054625
:101900005248403000690121C90408434F49403121
:101910000861084600690121C90488434B494031E8
:10192000086108460561801528408915884215D14F
:10193000FFF7D6FE064608E038E0FFF7D1FE801B31
:101940004449884201D90320A2E740484030006959
:10195000012149020840400A0028EED000BF00BF24
:10196000032109046068084088420AD137480068AA
:101970000901884303221205616811400843334975
:10198000086000BF314840300069032212046168DA
:10199000114008432D494031086100BF012F05D196
:1019A0002A48806B89058843284988632078C007C6
:1019B000C00F002809D025484030C068800880004A
:1019C000A168084321494031C860022120680840CD
:1019D000022809D11D484030C0680C218843E168C5
:1019E00008431A494031C86004212068084004288F
:1019F0000AD116484030C068032189028843216912
:101A0000084312494031C86008212068084008286E
:101A10000AD10E484030C068032109038843616938
:101A200008430A494031C860802120680840802866
:101A30000AD106484030C068032189048843A1695F
:101A4000084302494031C860002021E700100240ED
:101A50000070004088130000F8B504460E46002CC4
:101A600001D10120F8BD83480068C007C00FB04213
:101A700018D2804800684008400030437D49086023
:101A8000FFF72EFE054607E0FFF72AFE401B7A49C6
:101A9000884201D90320E5E776480068C007C00FF7
:101AA000B042F1D1022120680840022807D17348D2
:101AB000C068F0218843A16808437049C860207855
:101AC000C007C00F00284CD06068022809D16B48BD
:101AD0000068012149040840400C002824D101205D
:101AE000C0E76068032809D16448006801214906FD
:101AF0000840400E002817D10120B3E76068012894
:101B000008D15E48006804210840800800280BD1F5
:101B10000120A7E759480068012149020840400A0E
:101B2000002801D101209DE75448C068800880004A
:101B3000616808435149C860FFF7D2FD05466068F7
:101B400002280FD107E0FFF7CBFD401B4A4988422E
:101B500001D9032086E74948C0680C2108400828BD
:101B6000F1D134E0606803280FD107E0FFF7B8FD3A
:101B7000401B4149884201D9032073E73F48C068B0
:101B80000C2108400C28F1D121E0606801280FD118
:101B900007E0FFF7A5FD401B3749884201D9032024
:101BA00060E73648C0680C2108400428F1D10EE0F7
:101BB00007E0FFF795FD401B2F49884201D903201C
:101BC00050E72E48C0680C2108400028F1D1294870
:101BD0000068C007C00FB04218D926480068400806
:101BE0004000304323490860FFF77AFD054607E0CF
:101BF000FFF776FD401B2049884201D9032031E7D9
:101C00001C480068C007C00FB042F1D10421206811
:101C10000840042808D11948C068072109028843F0
:101C2000E16808431549C860082120680840082871
:101C300009D11248C0680721C90288432169C90037
:101C400008430E49C86000F06DF80C49C968F022DD
:101C5000114009090A4A515CC8400A4908600A480B
:101C60000068FFF765FD0746002F01D03846F9E60A
:101C70000020F7E600200240881300000010024018
:101C8000FC46000880000020780000200F2202603F
:101C90000D4AD2689207920F42600B4AD268F02335
:101CA0001A408260084AD26807231B021A40C260A9
:101CB000054AD268DB001A40D2080261034A126862
:101CC000D207D20F0A607047001002400020024085
:101CD00001480068704700008000002000B5FFF751
:101CE000F7FF0549C968072212021140090A034A91
:101CF000515CC84000BD0000001002400C470008C5
:101D000000B5FFF7E5FF0549C9680722D202114077
:101D1000C90A034A515CC84000BD000000100240DF
:101D20000C470008F0B585B03548C06803900C2119
:101D300003980840002852D0042804D008280CD06A
:101D40000C284BD10BE02E480068102108400028D9
:101D500001D02C4D00E02C4D4EE02C4D4CE00F21DD
:101D6000890403980840800C29490F5C03218905E8
:101D700003980840800D441C2148C06801210904D3
:101D8000084000280BD02148394602F0BCF9224611
:101D9000002301910090FEF715FA06461CE0184852
:101DA00000681021084000280BD01648394602F080
:101DB000AAF92246002301910090FEF703FA064695
:101DC0000AE01148394602F09EF9224600230191AB
:101DD0000090FEF7F7F9064635460DE000BF0848CB
:101DE0004068072149030840400B02900298401CBC
:101DF00001218140CD0300BF00BF284605B0F0BDE2
:101E00000010024000093D000024F40000127A0096
:101E100014470008FEB50446002C01D10120FEBD88
:101E2000F948C6680C210E40C768012109040F401B
:101E30002078C007C00F002872D0082E04D00C2EC6
:101E40000FD1084687420CD1EF48006801214904B0
:101E50000840400C002863D06068002860D1012051
:101E6000DDE700BF012109046068884205D1E6482A
:101E700000680843E449086027E005210904606818
:101E800088420ED1E0480068012189040843DE49F8
:101E9000086008460068012109040843DA4908601F
:101EA00013E0D9480068012109048843D649086035
:101EB00008460068012109040840009000BFD2488C
:101EC000006889008843D049086000BF6068002826
:101ED00013D0FFF705FC054606E0FFF701FC401BA9
:101EE000642801D903209AE7C74800680121490402
:101EF0000840400C0028F0D012E0FFF7F1FB054647
:101F000006E0FFF7EDFB401B642801D9032086E7BC
:101F1000BD480068012149040840400C0028F0D168
:101F200002212068084002287BD1E0680290042E3C
:101F300003D00C2E35D1002F33D1B34800680421D3
:101F400008408008002804D00298002801D1012010
:101F500065E7AD4840681F210902884321690902ED
:101F60000843A94948600846006809218843029946
:101F70000843A5490860FFF7D5FEA349C968F022C8
:101F800011400909A14A515CC840A1490860A14813
:101F90000068FFF7CDFB01900198002841D001981F
:101FA0003DE70298002824D097480068092188431B
:101FB0000299084394490860FFF792FB054606E042
:101FC000FFF78EFB401B022801D9032027E78E482C
:101FD00000680421084080080028F1D08A48406841
:101FE0001F21090288432169090208438649486084
:101FF00017E0854800684008400083490860FFF703
:102000006FFB054606E0FFF76BFB401B022801D97A
:10201000032004E77C480068042108408008002869
:10202000F1D1102120680840102868D1002E37D146
:102030007548006849010840400A002804D0A0699A
:10204000002801D10120EAE66F48406807214903D2
:102050008843216A08436C4948600846406800028A
:10206000000A217F0906084367494860206A400B3F
:10207000401C01218140C8036349C968F022114016
:102080000909624A515CC8406149086061480068BA
:10209000FFF74EFB0190019800284BD00198BEE657
:1020A000A06900282CD058480068FF21013108435E
:1020B00055490860FFF714FB054606E0FFF710FBE3
:1020C000401B022801D90320A9E64F4800680121DE
:1020D00049020840400A0028F0D04B4840680721D8
:1020E00049038843216A08434749486008464068D5
:1020F0000002000A217F090608434349486019E0AD
:1021000041480068FF21013188433F490860FFF7DB
:10211000E7FA054606E0FFF7E3FA401B022801D97B
:1021200003207CE638480068012149020840400A43
:102130000028F0D1082120680840082839D16069BA
:1021400000281BD0304840300069012108432E4947
:1021500040310861FFF7C4FA054606E0FFF7C0FA10
:10216000401B022801D9032059E627484030006966
:102170000221084040080028F0D01AE022484030F0
:10218000006940084000204940310861FFF7A8FA83
:10219000054606E0FFF7A4FA401B022801D90320F8
:1021A0003DE61948403000690221084040080028F7
:1021B000F0D104212068084004287BD10020009041
:1021C0001148806B89060840002806D10E48806BB4
:1021D00008430D498863012000900F480068FF21E3
:1021E00001310840002820D10B48006808430A4903
:1021F0000860FFF775FA054610E0FFF771FA401B1B
:1022000064280BD903200AE600100240FC460008AF
:1022100080000020780000200070004085480068A1
:10222000FF21013108400028E7D000BFFF21013124
:10223000A068884205D18048006908437E4908614A
:1022400030E0A06800280DD17B480069FF210131F2
:102250008843794908610846006909158843764929
:1022600008611FE005210902A06888420DD172486B
:1022700000690121890208436F4908610846006925
:10228000891508436C4908610CE06B480069FF211F
:102290000131884368490861084600690915884387
:1022A0006549086100BFA068002815D0FFF718FA3B
:1022B000054608E031E0FFF713FA401B5F4988420A
:1022C00001D90320ABE55C480069012149020840BF
:1022D000400A0028EFD013E0FFF702FA054607E0B6
:1022E000FFF7FEF9401B5549884201D9032096E5C6
:1022F00051480069012149020840400A0028EFD1F5
:102300000098012808D14C484038806B012109070A
:10231000884349494039886300BF606A00284CD02F
:102320000C2E69D0606A022848D1434840380068C2
:10233000012109068843404940390860FFF7D0F978
:10234000054606E0FFF7CCF9401B022801D903201F
:1023500065E5394840380068012149060840400ECB
:102360000028EFD1E16AA06A0843216B0843324993
:102370004039C968FD221204914308432E4940396F
:10238000C860084600680121090608432A49403907
:102390000860FFF7A5F9054606E0FFF7A1F9401B25
:1023A000022801D903203AE523484038006801217A
:1023B00049060840400E0028EFD038E01E4840385B
:1023C00000680121090688431B4940390860FFF76E
:1023D00087F9054606E0FFF783F9401B022801D97B
:1023E00003201CE5144840380068012149060840D4
:1023F000400E0028EFD11AE0606A012800D10EE5F6
:102400000D484038C768012000043840A16A88425E
:102410000BD10F2080043840E16A884205D10320A7
:1024200080053840216B884201D00120F7E400206C
:10243000F5E40000007000404010024088130000E6
:1024400010B50446002C01D1012010BD606A00289F
:1024500008D1FF2105316068884200D105E00021E4
:10246000E16102E00021216161610021A16251204E
:10247000005D002804D150200155204600F048F8A6
:1024800002215120015520680068402188432168BD
:102490000860FF2105316068084021229202A1688E
:1024A000114008430122D202E16811400843022290
:1024B000216911400843217DC907C90F0843120251
:1024C000A169114008433822E16911400843802284
:1024D000216A114008439201A16A11400843216812
:1024E0000860A069000C042108401022616A1140B4
:1024F0000843216848602068C069D1018843216889
:10250000C8610020606501215120015500209CE731
:1025100010B586B00446142101A8FDF7B9FF14498F
:102520002068884222D11348406B8914084311491E
:10253000486300BF0846C06A012108430D49C862CC
:102540000846C06AC007C00F009000BF00BFE0206F
:1025500001900220029000200390032004900020AC
:10256000059001A905200007FEF7A8FF06B010BDE1
:102570000030014000100240FFB587B004461D4600
:10258000109E0120039000200290E068002800D0F7
:1025900000BF00BF5020005D012802D102200BB017
:1025A000F0BD01215020015500BFFFF799F8074603
:1025B0005120005D049060680590069504980128FC
:1025C0000DD0FF2105310598884205D1A06800286B
:1025D00002D10498042802D002200290E9E0089871
:1025E000002804D00998002801D0002D02D1012034
:1025F0000290DEE05120005D042802D00521512028
:102600000155002060650998A063E587A5870898B3
:102610002063E586A5860020206460642068006849
:1026200040210840402804D0206800680843216801
:1026300008600121C902E06888424FD16068002823
:1026400002D00698012809D1206B00882168C86053
:10265000206B801C2063E08E401EE08637E02068FF
:10266000806802210840022811D1E08E00280ED097
:10267000039801280BD1206B00882168C860206B6B
:10268000801C2063E08E401EE086002003902068BE
:102690008068C007C00F00280ED0E08F00280BD044
:1026A0002068C068A16B0880A06B801CA063E08FCD
:1026B000401EE08701200390FFF712F8C01BB042D4
:1026C00005D3701C002802D00320029071E0E08E38
:1026D0000028C4D1E08F0028C1D150E060680028F4
:1026E00002D00698012809D1206B00782168087370
:1026F000206B401C2063E08E401EE08639E020689D
:10270000806802210840022811D1E08E00280ED0F6
:10271000039801280BD1206B007821680873206B87
:10272000401C2063E08E401EE0860020039020685D
:102730008068C007C00F00280ED0E08F00280BD0A3
:102740002068C068A16B0870A06B401CA063E08F7C
:10275000401EE08701200390FEF7C2FFC01BB0427D
:1027600002D3701C002801D1002E02D10320029058
:102770001FE0E08E0028C2D1E08F0028BFD13A468A
:102780003146204600F0B2FD002804D0012002901E
:10279000202060650DE0A068002809D100BF0190ED
:1027A0002068C068019020688068019000BF00BF69
:1027B00000BF01215120015500BF002150200155CB
:1027C00000BF0298EBE6000030B502460B4600BFA2
:1027D0003820805C012801D1022030BD012538203D
:1027E000855400BF0225392085541068446810685C
:1027F000816870252046A843044618680443106881
:1028000044600125AD071068A84207D00C4D106840
:10281000A84203D00B4D1068A84207D18025084676
:10282000A84301465868014310688160012539209A
:10283000855400BF00253820855400BF0020CCE718
:10284000000801400014014010B50446002C01D1DD
:10285000012010BD3920005D002805D1002138205D
:102860000155204600F018F8022139200155211D9C
:10287000206801F0F7F801213E20015500BF3A2001
:1028800001553B2001553C2001553D20015500BF1D
:10289000392001550020DCE710B5044601218907E5
:1028A000206888420ED11148806B012108430F49EE
:1028B0008863002211460F20FEF7B0FF0F20FEF7BD
:1028C0009FFF11E00A49206888420DD10748406BFC
:1028D0002021084305494863002211461620FEF7CF
:1028E0009DFF1620FEF78CFF10BD00000010024077
:1028F0000014014001463920405C012801D001202C
:1029000070470223392043540868C06801231843E4
:102910000B68D86001239B070868984207D00E4BCC
:102920000868984203D00D4B086898420CD108689B
:1029300080684207520F062A0CD0086800680123FD
:1029400018430B68186005E0086800680123184305
:102950000B6818600020D3E7000801400014014014
:1029600001460868C068400840000A68D06000BF9F
:102970000868006A074A1040002805D10868006806
:10298000400840000A68106000BF0122392042540C
:102990000020704711110000F8B504460D460020D4
:1029A000009000BF3820005D012801D10220F8BD51
:1029B00001213820015500BF02213920015520682E
:1029C00086687721304688430646FF210902304653
:1029D00088430646206886602868502834D00CDC7E
:1029E000202851D004DC00284CD0102852D14AE0D5
:1029F00030284AD040284DD13AE060282ED07028A7
:102A000007D001210903401A02D0401A42D10DE03B
:102A100043E0EB686A68A968206801F059F820680B
:102A20008668772006432068866036E0EB686A682F
:102A3000A968206801F04CF82068806801218903AA
:102A400008432168886028E0EA686968206801F026
:102A500059F85021206801F049F81EE0EA686968D9
:102A6000206801F068F86021206801F03FF814E068
:102A7000EA686968206801F045F84021206801F0A3
:102A800035F80AE000BF00BF00BF2968206801F0E8
:102A90002DF802E00120009000BF00BF0121392085
:102AA000015500BF00213820015500BF00987EE786
:102AB000704710B5044620680069022108404008AC
:102AC00000281CD02068C06808404008002816D0A4
:102AD000481F2168086101202076206880698007EE
:102AE000800F002803D02046FFF7E2FF05E02046D4
:102AF00000F09DF8204600F09BF80020207620682A
:102B0000006904210840800800281DD02068C068A2
:102B100008408008002817D0C843216808610220B7
:102B2000207620688069032109020840002803D02C
:102B30002046FFF7BDFF05E0204600F078F820466C
:102B400000F076F80020207620680069082108400F
:102B5000C00800281CD02068C0680840C0080028B1
:102B600016D0C84321680861042020762068C06917
:102B70008007800F002803D02046FFF799FF05E06B
:102B8000204600F054F8204600F052F8002020764D
:102B90002068006910210840000900281DD0206825
:102BA000C06808400009002817D0C84321680861A0
:102BB000082020762068C069032109020840002807
:102BC00003D02046FFF774FF05E0204600F02FF801
:102BD000204600F02DF80020207620680069C0070C
:102BE000C00F01214840484000280CD02068C06830
:102BF000084048404840002805D0C81E21680861A8
:102C0000204600F017F8206800694021084080093C
:102C100000280BD02068C06808408009002805D033
:102C2000C84321680861204600F04EF810BD704787
:102C30007047000070B5044600251D492068884291
:102C400001D1FEF753FD1B492068884228D11A485C
:102C500000781A490978884216DA01221102052003
:102C60000007FEF736FD00E06D1C012DFCDB0022A5
:102C7000FF21013105200007FEF72BFD0E480078EB
:102C8000401C0D49087012E000200B4908700C48E8
:102C9000FFF766FE012211030A48FEF71AFD06E05F
:102CA000012189072068884201D100F029F970BD0F
:102CB0000008014000140140000000200100002035
:102CC0007401002000040050704710B50446002C29
:102CD00001D1012010BDA069002800D000E000BF94
:102CE000A06F002805D1002174200155204600F076
:102CF0002BF82420A0672068006840084000216865
:102D00000860204600F0E2FF012800D1E2E7606A97
:102D1000002802D0204600F027FF206840680921E3
:102D2000C902884321684860206880682A21884356
:102D300021688860206800680121084321680860D4
:102D4000204600F089FFC5E710B586B0044614217F
:102D500001A8FDF79DFB2A492068884225D1294812
:102D6000406B0121890308432649486300BF084698
:102D7000C06A012108432349C8620846C06AC007E7
:102D8000C00F009000BF00BF03204002019002204E
:102D9000029000200390032004900420059001A9D4
:102DA00005200007FEF78AFB27E0174920688842C4
:102DB00023D11448806B01214904084311498863D9
:102DC00000BF0846C06A012108430E49C862084690
:102DD000C06AC007C00F009000BF00BF0C20019068
:102DE000022002900020039003200490042005900C
:102DF00001A905200007FEF761FB06B010BD000029
:102E000000380140001002400044004000BFFEE7CF
:102E100010B5044601F0F5F901204003844215D1B4
:102E200074203249087072204870692088706720C9
:102E3000C87020202E4908702E48007840002E4986
:102E4000085A2E4948600846FFF754FD01208003C8
:102E5000844220D127480078401C264908700A2166
:102E600024480078FDF716FB2248017063201F49B3
:102E700008702048007848701D48007888707A20D3
:102E8000C87020201A4908701A48007840001A4972
:102E9000085A1A4948600120C003844223D12020E7
:102EA0001349087013480078401E124908700A211F
:102EB00010480078FDF7EEFA0E48017063200B49C8
:102EC00008700C48007848700948007888707A20AB
:102ED000C87020200649087006480078400006495E
:102EE000085A06494860002010BD00001700002065
:102EF00001000020660000205C000020740100201A
:102F000010B51E48FFF72CFD012149031C48FEF7B0
:102F1000CDFB00280FD10022012109031848FEF73C
:102F2000D8FB012149031748FEF7C9FB01204003E4
:102F3000FFF76EFF20E0012189031148FEF7B6FB81
:102F4000002809D1012149030E48FEF7B8FB0120F2
:102F50008003FFF75DFF0FE00121C9030848FEF77A
:102F6000A5FB002808D1012149030648FEF7A7FB6D
:102F70000120C003FFF74CFF002010BD34010020EA
:102F8000000400500008005000B587B0142102A8CA
:102F9000FDF77EFA00BF5D48C06A042108435B4923
:102FA000C8620846C06A04210840019000BF00BF03
:102FB00000BF5648C06A802108435449C862084689
:102FC000C06A80210840019000BF00BF00BF4F4889
:102FD000C06A012108434D49C8620846C06AC0075B
:102FE000C00F019000BF00BF00BF0846C06A0221A9
:102FF00008434649C8620846C06A02210840019059
:1030000000BF00BF002209034148FEF762FB002217
:10301000012109033F48FEF75CFB0022FF2101313B
:1030200005200007FEF755FB0122110305200007CC
:10303000FEF74FFB012211023648FEF74AFB012042
:10304000400302900120039000200490059002A903
:103050002F48FEF733FA13200290002003900490CB
:1030600002A905200007FEF729FA2B48029000204C
:103070000390049002A92748FEF720FA01200003DC
:10308000029001200390022004900320059002A9E1
:103090002048FEF713FA0720400302903120000475
:1030A00003900120049002A91A48FEF707FA1120A4
:1030B000000202900120039004900320059002A9D1
:1030C00005200007FEF7FAF90120C0020290002057
:1030D00003900120049002A905200007FEF7EEF9F5
:1030E000FF200130029001200390049003200590FE
:1030F00002A90848FEF7E2F9002211460720FEF770
:103100008DFB0720FEF77CFB07B000BD00100240DE
:1031100000080050000400500304000010B50E48E1
:103120000E490860FF200530486000210B4881608F
:10313000C160016141610121490281610021C161D8
:103140000162416281620721C162FFF779F90028BB
:1031500001D0FEF78DF910BD00300140DC000020E9
:1031600000B587B000200390049005900690019070
:1031700002901548154908606320486000211348F3
:1031800081601349C160002101614161FFF75CFB6F
:10319000002801D0FEF76CF901200003039003A979
:1031A0000A48FFF7F9FB002801D0FEF761F900207B
:1031B0000190029001A90548FFF706FB002801D005
:1031C000FEF756F907B000BD00140140740100205D
:1031D0007F3E000000B587B000200390049005906A
:1031E000069001900290012080071549086009208F
:1031F00048600021124881601249C16000210161CC
:103200004161FFF721FB002801D0FEF731F90120D1
:103210000003039003A90A48FFF7BEFB002801D072
:10322000FEF726F900200190029001A90448FFF75B
:10323000CBFA002801D0FEF71BF907B000BD000053
:1032400034010020FF7C000010B50E480E490860D4
:10325000E1204002486000210B488160C1600161AB
:103260000C21416100218161C16101620020064998
:1032700048620846FFF729FD002801D0FEF7F8F85C
:1032800010BD000000380140B401002010B50E4808
:103290000E490860E1204002486000210B4881602F
:1032A000C16001610C21416100218161C161016244
:1032B0000020064948620846FFF707FD002801D0B4
:1032C000FEF7D6F810BD0000004400403802002090
:1032D00000BFFEE7704738B5044601226946204624
:1032E00000F0CEF86846007838BD0000FEB5044610
:1032F0000D461646182119480068FDF7CBF8074619
:103300001749FDF7C7F87D21C90048430190FF2107
:103310000531606888420ED12B460022802120466C
:10332000009600F01FF8002815D0606D202108439A
:1033300060650320FEBD00BF0198002800D109E0B0
:103340000198401E01902068806880210840C009D3
:103350000028F1D100BF0020ECE700008000002031
:1033600040420F00FFB583B004460D461E46FEF7EF
:10337000B7F90C99401A371AFEF7B2F901902F48A5
:1033800000684001000D7843029049E0701C00285D
:1033900046D0FEF7A5F90199401AB84201D2002F94
:1033A00037D120684068E021884321684860FF21C8
:1033B0000531606888420ED10121C903A0688842A6
:1033C00003D04911A068884205D1206800684021D7
:1033D00088432168086001214903A06A88420DD111
:1033E00000BF206800688843216808602068006882
:1033F0000121490308432168086000BF01215120D1
:10340000015500BF00215020015500BF032007B027
:10341000F0BD0298002800D100270298401E0290BB
:10342000206880682840A84201D1012100E00021E5
:1034300005988142AAD10020E9E700008000002021
:103440007047704710B5012105200007FEF72EF9DF
:1034500010BD10B5022105200007FEF727F910BDA9
:1034600010B501210148FEF721F910BD00040050FC
:1034700010B502210148FEF719F910BD00040050F3
:10348000F8B505460E461746002000F031FA6806EA
:10349000400E00F01DFA002405E0002000F018FAAC
:1034A0003055601CC4B2BC42F7DB012000F020FAAA
:1034B000F8BDF8B505460E461746002000F018FA8C
:1034C00080212943084600F003FA002404E0305D1F
:1034D00000F0FEF9601CC4B2BC42F8DB012000F031
:1034E00007FAF8BD10B5044622460121090305205C
:1034F0000007FEF7EEF810BD10B50120FFF7EBFE58
:10350000F821084010BD000070B500248A480078FA
:10351000030000F010FE0E080A357173757BB4B617
:10352000B8CFFCFBFAF9002070BD012000F054F97F
:1035300000210F2000F0DFFD00210D2000F0DBFD59
:10354000FF211F2000F0D7FDBF21112000F0D3FD87
:103550004020FFF7C0FE8506AD0E2946402000F052
:10356000CAFD052000F038F91220FFF7B4FEFDF780
:1035700083FF7249086002206F4908700120D3E779
:10358000FFF760FF012808D14021122000F0B3FDB1
:103590000320694908700120C6E7FFF75AFF012898
:1035A00008D18021122000F0A6FD04206249087095
:1035B0000120B9E7FDF760FF0446604800688442D7
:1035C0000BD35E480068201A5D490968884211D90A
:1035D0000420594908700120A6E758480068C043F4
:1035E000201857490968884204D9042052490870B4
:1035F000012099E7012097E7022095E7032093E750
:10360000FDF73AFF4D49086001208DE7FFF71AFFEB
:10361000012808D10821122000F06DFD072046493D
:103620000870012080E7FFF70DFF012808D108216D
:10363000122000F060FD07203F490870012073E769
:10364000FDF71AFF04463D48006884420AD33B4810
:103650000068201A3A49096888420ED9082036497C
:1036600008700AE035480068C043201834490968EA
:10367000884202D9082030490870012054E704200C
:1036800052E7052050E7012000F0A6F8FA211120AA
:1036900000F031FD0021402000F02DFD072000F05A
:1036A0009BF8FDF7E9FE254908600A2022490870C9
:1036B000012039E7FFF7D4FE012815D1042112209B
:1036C00000F019FDFFF7D4FE012808D101211220D6
:1036D00000F011FD0B2018490870012024E70C2090
:1036E0001549087001201FE7FDF7C6FE0446134880
:1036F000006884420CD311480068201A642810D94D
:103700000D200D4908700CE013E010E00DE00AE018
:103710000A480068C0432018642802D90D200649D1
:103720000870012000E70620FEE60720FCE60820DE
:10373000FAE60920F8E60000C8000020CC000020CE
:10374000B800002070B504460D462A4621460020E8
:10375000FFF796FE70BD0000FEB506463046FCF74A
:1037600096FF04460E4A0F4BFCF794FF0191009020
:10377000FCF740FF06460296002000F02DF8684650
:10378000817A062000F0B7FC6846417A072000F0F5
:10379000B2FC6846017A082000F0ADFCFEBD0000D6
:1037A0008DEDB5A0F7C6903F10B50120FFF793FD52
:1037B00080210840002800D010BD002000F00CF847
:1037C0000120FFF788FD802108430446214601209F
:1037D00000F091FC00BFEFE770B50446FFF78CFEE8
:1037E000A04200D170BD0120FFF775FDF82108400F
:1037F00020430821084305462946012000F07BFCB0
:10380000012000F053F800BFECE70000F8B50646D1
:103810000C46154605201E490870FF2C00DDFF24CC
:10382000002D02D01B48056003E07D20C00019492F
:103830000860E1B2222000F05EFC00210E2000F0C2
:103840005AFC00210D2000F056FC0120FFF7C4FFB8
:10385000E1B2304600F020F8F721112000F04BFCD7
:103860004020FFF738FD8006800E07464037394676
:10387000402000F040FCFFF747FE0320FFF7ACFFBD
:103880001220FFF728FD062001490870F8BD00004E
:10389000C8000020B800002070B504460D462A4636
:1038A00021460020FFF705FE70BD0000002106E064
:1038B000064900BF0A464B1E99B2002AFAD10246B9
:1038C000431E98B2002AF3D1704700000E1F00007B
:1038D00001B582B03220012301AA02A90090034859
:1038E000FEF74AFE684600790EBD0000DC000020AD
:1038F00010B504462246FF2101310248FDF7E9FEDA
:1039000010BD00000004005070B506460C461320A0
:10391000FFF7E1FC05462088A84201DA258800E08F
:103920002580E9B23046FFF70DFF70BD10B50020CD
:10393000FFF7D8FD0A20FFF7B9FF0120FFF7D2FDFE
:103940000A20FFF7B3FF00200149087010BD0000F6
:10395000C80000200920014908707047C8000020F5
:10396000002802D00549086003E07D21C900034A10
:1039700011600121024A117070470000B800002058
:10398000C800002002480068401C014908607047D8
:103990007000002000B599B034210CA8FCF778FD28
:1039A000142107A8FCF774FD1C216846FCF770FD84
:1039B0001E4800680321C90288430121C90240183A
:1039C0001A49086002200C9001200F9010201090DE
:1039D000022015900021169141041791410518917C
:1039E0000CA8FEF717FA002801D0FDF741FD0F20C3
:1039F000079003200890002009900A900B90012165
:103A000007A8FEF729F8002801D0FDF731FD0320B3
:103A100000900020029003906846FDF709FF0028FF
:103A200001D0FDF725FD19B000BD00000070004079
:103A30007047000010B50248FFF73BF810BD0000CA
:103A4000BC02002010B50248FFF733F810BD00009B
:103A50007401002010B50248FFF72BF810BD0000DC
:103A60003401002010B5026801239B07984205D05D
:103A7000154B984202D0154B984205D1702413463D
:103A8000A3431A464B681A4301239B07984205D06B
:103A90000D4B984202D00D4B984206D103242402CC
:103AA0001346A3431A46CB681A4380241346A34304
:103AB0000C6923431A4602608B68C3620B688362F9
:103AC0000123436110BD00000008014000140140C3
:103AD00070B50C468168FF2636020D46B54329466F
:103AE0001D02154325432943816070BD10B50A4668
:103AF000816870240B46A3431946072313431943D7
:103B0000816010BD70B50B461446026A056A6D08E7
:103B10006D0005628169F0260D46B54329462501F1
:103B200029430A261546B5432A4615461D432A460B
:103B30008161026270BD70B50B461446056A10269D
:103B4000B54305628169026A0F2636030D46B54307
:103B5000294625032943A0261546B5432A461D01BB
:103B60002A438161026270BD818CC907C90F002997
:103B700008D001684968012252049143826A1143C6
:103B8000026851600222416A1140022907D101688E
:103B90004968D2039143C26A11430268516004220A
:103BA000416A1140042907D1016849681204914310
:103BB000026B1143026851600822416A11400829D2
:103BC00007D10168496812039143426B11430268AF
:103BD00051601022416A1140102907D1016889689B
:103BE00012029143826B1143026891602022416A64
:103BF0001140202907D10168896812029143C26BE4
:103C00001143026891604022416A1140402915D158
:103C10000168496892039143026C11430268516044
:103C200001221205016C914208D101684968032202
:103C300052059143426C1143026851608022416AEF
:103C40001140802907D10168496812039143826CB1
:103C5000114302685160704738B504460021802046
:103C60000151FDF73DFD0546206800680821084028
:103C700008280BD114482B460022890400902046C6
:103C800000F0ACF9002801D0032038BD206800689E
:103C90000421084004280BD10B482B4600220905BB
:103CA0000090204600F09AF9002801D00320ECE7AC
:103CB0002020A067E0670020206600BF002174205C
:103CC000015500BF0020E0E7FFFFFF01F0B587B01E
:103CD000044600200390B8492068884200D100E0E3
:103CE00000BF2169A068084361690843E16908438E
:103CF000059020680068B14908400599084321688B
:103D0000086020684068032109038843E16808438C
:103D100021684860A0690590A7492068884203D0BF
:103D2000206A059908430590206880680B210902E4
:103D30008843059908432168886000BFA04920682E
:103D4000884217D19F48C0688007800F002806D09E
:103D5000012808D0022804D0032808D105E0012654
:103D600007E0022605E0042603E0082601E010260D
:103D700000BF3BE094492068884217D19148C06851
:103D80000C210840002806D0042808D0082804D0B8
:103D90000C2808D105E0002607E0022605E00426ED
:103DA00003E0082601E0102600BF1FE082492068DA
:103DB00088421AD18348C06803218902084000283C
:103DC00008D001218902401A08D0401A04D0401AB4
:103DD00008D105E0002607E0022605E0042603E0FE
:103DE000082601E0102600BF00E0102600BF72493F
:103DF0002068884251D1002E06D0022E08D0042E11
:103E000012D0082E17D113E0FDF768FF054616E023
:103E10006C4840380068102108400009002801D093
:103E20006A4D00E06A4D0AE0FDF77CFF054606E0BA
:103E30000125ED0303E000250120039000BF00BF32
:103E4000002D0AD0606841004018A84203D860687D
:103E50000003A84202D201200390A6E0606802900D
:103E60002846FF21013100F04EF962685208002314
:103E70008018594101910090029AFCF7A3F9074676
:103E8000032109028F4205D35248874202D8206895
:103E9000C7608AE00120039087E00121C903E0693F
:103EA000884247D1330000F046F909060A0E211A6C
:103EB0002121211E2100FDF711FF05461AE0FDF723
:103EC0001FFF054616E03F484038006810210840B3
:103ED0000009002801D03D4D00E03D4D0AE0FDF70E
:103EE00021FF054606E00125ED0303E00025012042
:103EF000039000BF00BF002D57D06A0063685B08C5
:103F0000D0186168FCF7C6FA87B2102F0FD3324879
:103F100087420CD830480F38384004903807400F9B
:103F200004990843049004982168C8603DE001208A
:103F300003903AE0330000F0FEF809060A0E211A59
:103F40002121211E2100FDF7C9FE05461AE0FDF7DB
:103F5000D7FE054616E01B4840380068102108408F
:103F60000009002801D0194D00E0194D0AE0FDF7C5
:103F7000D9FE054606E00125ED0303E000250120FA
:103F8000039000BF00BF002D0FD061684A08501990
:103F9000FCF780FA87B2102F05D30F48874202D86A
:103FA0002068C76001E00120039000206066A066E1
:103FB000039807B0F0BD000000480040F369FFEF30
:103FC00000380140401002400044004000093D001C
:103FD0000024F400FFFF0F00FFFF0000FFB581B0D9
:103FE00004460D4617460A9E78E0701C002875D0DE
:103FF000FDF776FB0499401AB04201D8002E2DD16E
:1040000000BF00F0E3F80090012000F0E2F8206823
:104010000068FF21A131884321680860009800F002
:10402000D8F800BF00BF00F0D1F80090012000F0E8
:10403000D0F82068806840084000216888600098B7
:1040400000F0C7F800BF2020A067E06700BF002194
:104050007420015500BF032005B0F0BD2068006842
:1040600004210840002839D02068C069490208406E
:10407000C00A002832D008462168086200BF00F05C
:10408000A5F80090012000F0A4F820680068FF2146
:10409000A131884321680860009800F09AF800BFB9
:1040A00000BF00F093F80090012000F092F8206823
:1040B00080684008400021688860009800F089F816
:1040C00000BF2020A067E06720218020015100BFB1
:1040D00000217420015500BF0320BDE72068C0699E
:1040E0002840A84201D1012000E00020B84200D1C0
:1040F0007BE70020B0E713B50446012201A9204662
:10410000FFF7D7F91CBDF8B582B28BB2040C0D0CC9
:1041100010465843002126465E43370C360480196A
:10412000794116466E43370C36048019794126468C
:104130006E438919F8BD30B47446641E2578641C3A
:10414000AB4204D3635D5B00E31830BC18471D46E7
:10415000F8E7000010B5002819DB1A4A03231B02F8
:10416000D21883089B00D2588307DC0EFF23A3409C
:104170009A438B071B0E8407E40EA3401A43114B8E
:10418000032424021B198408A4001A5118E00E4AC3
:1041900003071B0F083B9B089B00D2588307DC0ECC
:1041A000FF23A3409A438B071B0E8407E40EA34012
:1041B0001A43054B0407240F083CA408A4001A5115
:1041C00010BD000000E100E01CED00E0EFF3108006
:1041D000704780F31088704770B50546FDF74CF9BD
:1041E00006460DE0FDF748F90446B44203D3A01B90
:1041F000A84205D970BDF0432018A84200D9F9E7BC
:10420000F0E70020002100BF07E0002100E0491C8A
:104210007D22D2009142FADB401C7D22D2009042E6
:10422000F3DB704710B58A68002A02DCFCF720FD3A
:1042300010BD521E8A604A68C0B2531C4B60107099
:1042400010BD0000A4B0FDF75DFAFFF7A3FBFEF779
:104250009BFEFEF763FFFEF7F7FFFFF717F8FEF789
:104260007FFFFEF7B7FF384A07CA21AB07C33748BD
:10427000016821A888470022FF210131052000079D
:10428000FDF727FA0121C90205200007FDF70EFA04
:10429000012801D1012400E00024002C05D00122D6
:1042A00011032B48FDF715FA05E00022012109034F
:1042B0002748FDF70EFA45E0002C13D07D22D200EE
:1042C000092124A000F0C2F9002803D124A0FBF7A3
:1042D000FBFF02E025A0FBF7F7FF7D20C000FFF702
:1042E0007BFF2FE0802101A8FCF7D2F8802100910C
:1042F000FF21009101A8FCF7CBF820A0FBF7E4FF19
:104300007D221201694601A800F03EF90546002D04
:1043100004D0012D09D0022D0DD107E001AA684675
:10432000017819A0FBF7D0FF0AE000BF29461FA0C3
:10433000FBF7CAFF04E0294621A0FBF7C5FF00BF39
:1043400000BF00BFB8E70000F0460008840000206E
:104350000004005061697468696E6B65720000004A
:1043600073656E64206F6B0D0A00000073656E64E8
:104370002074696D656F75740D0A00007374617245
:10438000742072780D0A0000727820646F6E650DDB
:104390000A20206C656E3A25640D0A2020706C613D
:1043A000796C6F61643A25730D0A0000727820748D
:1043B000696D656F7574207265743A25640D0A0025
:1043C000756E6B6E6F77207265743A25640D0A0006
:1043D00010B50446FFF735F8FFF7A8FA07E02822E2
:1043E0004E494FA0FBF770FF6420FFF75FFA0620ED
:1043F000FEF771FF6C28F2D150A0FBF765FFFFF7C5
:10440000D3F9002C03D0514821460EC90EC04F4CA1
:104410006079092806DD352240494DA0FBF754FF9D
:1044200009206071E079042806DD39223B4948A063
:10443000FBF74AFF0420E071E079012806DA3D220B
:10444000364943A0FBF740FF0120E071A0790C281A
:1044500006DD412231493EA0FBF736FF0C20A0715A
:10446000A079062806DA45222C4939A0FBF72CFF53
:104470000620A07104202056142806DD4922274971
:1044800033A0FBF721FF142020712068FFF764F9A7
:1044900060793A4A105CE279521E394B9A5C1043BB
:1044A00001461D20FFF727FEA079801F354A105CCA
:1044B0000722104301461E20FFF71DFEFF211F208B
:1044C000FFF719FE0C212620FFF715FE04202056C9
:1044D00011280ADD20797B30C1B20920FFF70BFEDD
:1044E00087214D20FFF707FE09E020797E30C1B219
:1044F0000920FFF700FE84214D20FFF7FCFD3B2142
:104500000B20FFF7F8FD208901122020FFF7F3FDB3
:10451000217A2120FFF7EFFD10BD00001D470008A4
:104520005B4552524F5220257328292D25645D7317
:104530007069206572726F720D0A000073706920D5
:10454000696E6974206F6B0D0A000000BC000020CA
:104550005B57415252494E4720257328292D256427
:104560005D73657474696E67206572726F722C6119
:1045700075746F206669780D0A000000AB0000209A
:10458000A7000020A0000020F7B582B00E46174615
:10459000FCF772FF01900120FFF71EF900210F20A8
:1045A000FFF7A9FD00210D20FFF7A5FDFF211F202A
:1045B000FFF7A1FDBF211120FFF79DFD4020FEF771
:1045C0008AFE8006800E014600904020FFF793FD92
:1045D0000520FFF701F91220FEF77DFE35E0FEF71A
:1045E00031FF012814D140211220FFF784FD132050
:1045F000FEF771FE05463078A84201DA357800E012
:10460000357029460298FFF79DF8002005B0F0BDEF
:10461000FEF71FFF012805D180211220FFF76BFD57
:104620000120F3E7FCF728FF044601998C4205D3EB
:104630000198201AB84208D90120E7E70198C04341
:104640002018B84201D90120E0E7C8E7F7B582B0E9
:1046500007461546FCF710FF064622200399FFF790
:104660004AFD00210E20FFF746FD00210D20FFF737
:1046700042FD0120FFF7B0F838460399FFF70CF927
:10468000F7211120FFF737FD4020FEF724FE8006BA
:10469000800E4030014601904020FFF72CFD0320A2
:1046A000FFF79AF81220FEF716FE1AE0FEF7CAFE90
:1046B000012806D108211220FFF71DFD002005B0BA
:1046C000F0BDFCF7D9FE0446B44204D3A01BA842B7
:1046D00007D90120F3E7F0432018A84201D90120AF
:1046E000EDE7E3E731323334003536373800000088
:1046F000C092ED1914070C01050000000000000035
:104700000000000001020304060708090000000081
:1047100001020304030406080C10182030737831DA
:10472000323778496E6974003A7474003A747400D0
:104730003A7474005447000800000020DC000000B8
:104740000401000830480008DC0000207C0900005B
:104750002001000800081400000000000000000014
:1047600000000000020000000000007400000000D3
:1047700000000000000000000000000000000072C7
:1047800078746573740000000000000000000000F1
:104790000000000000000000000000000000000019
:1047A0000000000000000000000000000000000009
:1047B000F401E803D0078813102700000000000070
:1047C00000000000000000000000000004000000E5
:1047D0000100000000002000D14300082D3900082E
:1047E00061390008093900080D38000855390008FA
:1047F0000935000860708090A0B0C002040608006F
:10480000102030405060708090000000E8030000ED
:10481000C092ED19140707010F000000000000000E
:104820000000000000000000000000000000000088
:04000005080000C12E
:00000001FF
