:020000040800F2
:10000000300C00209D010008F5320008092E000880
:1000100000000000000000000000000000000000E0
:100020000000000000000000000000005136000841
:100030000000000000000000BD340008ED4C000886
:10004000AF010008AF010008AF010008AF010008D0
:10005000AF010008AF010008AF010008B7120008A7
:1000600000000000AF010008AF010008AF01000868
:10007000AF010008AF01000800000000B14D00080A
:1000800000000000AF0100080000000000000000B8
:10009000914D000800000000A14D0008AF010008CC
:1000A000AF010008AF010008AF010008AF01000870
:1000B000AF010008AF0100080000000000000000D0
:1000C00000F002F800F03EF80CA030C80838241800
:1000D0002D18A246671EAB4654465D46AC4201D180
:1000E00000F030F87E460F3E0FCCB6460126334274
:1000F00000D0FB1AA246AB4633431847C05A000053
:10010000E05A0000103A02D378C878C1FAD85207F2
:1001100001D330C830C101D504680C6070470000BD
:100120000023002400250026103A01D378C1FBD813
:10013000520700D330C100D50B6070471FB51FBDFB
:1001400010B510BD01F05CF81146FFF7F7FF05F0A0
:100150005FFB01F074F803B4FFF7F2FF03BC01F09A
:10016000A3F8000070B505460C46164602E00FCC19
:100170000FC5103E102EFAD2082E02D303CC03C5B1
:10018000083E042E07D301CC01C5361F03E02178B9
:100190002970641C6D1C761EF9D270BD074880471B
:1001A00007480047FEE7FEE7FEE7FEE7FEE7FEE75B
:1001B00004480549054A064B704700008D4D00086C
:1001C000C100000830060020300C0020300800205C
:1001D00030080020FEB5054610460C46184373D083
:1001E000AE468C460020AD1A01469C4167D3664658
:1001F000002701243D46B61A9D4102D313463A46D4
:100200002124654676462F04360C3E432D0CB61A43
:100210009D4104D3150C1B042B4312041034654676
:1002200076462F06360A3E432D0AB61A9D4104D360
:10023000150E1B022B4312020834654676462F0723
:1002400036093E432D09B61A9D4104D3150F1B01F3
:100250002B431201241D65467646AF07B6083E4380
:10026000AD08B61A9D4104D3950F9B002B43920015
:10027000A41C65467646EF0776083E436D08B61A1D
:100280009D411AD392185B41641C16E00018764613
:1002900065464941B71A9D410191009009D36046D6
:1002A000B11A98418E468446009801990025401C59
:1002B0006941DD0752082A435B08641EE6D5724691
:1002C000634603B0F0BDFFE700200146C046C046CC
:1002D0002A462346F5E7000030B5441C03E00178C8
:1002E000401C00290DD08107F9D10B4BDD0104C85A
:1002F000D11A91432940FAD0001B0A0603D0C01E30
:1003000030BD001B30BD0A0401D0801E30BD090283
:10031000FCD0401E30BD000001010101F8B5042AE7
:100320002CD3830712D00B78491C0370401C521E3B
:1003300083070BD00B78491C0370401C521E8307A7
:1003400004D00B78491C0370401C521E8B079B0F76
:1003500005D0C91ADF002023DE1B08C90AE0FFF719
:1003600001FFF8BD1D4608C9FD401C46B4402C43A2
:1003700010C0121F042AF5D2F308C91A521EF0D475
:100380000B78491C0370401C521EEAD40B78491CA0
:100390000370401C012AE4D409780170F8BD01E023
:1003A00004C0091F0429FBD28B0701D50280801CE1
:1003B000C90700D00270704700290BD0C30702D0D4
:1003C0000270401C491E022904D3830702D5028013
:1003D000801C891EE3E70022EEE70022DFE700220F
:1003E00003098B422CD3030A8B4211D300239C4672
:1003F0004EE003460B433CD4002243088B4231D3EA
:1004000003098B421CD3030A8B4201D394463FE07D
:10041000C3098B4201D3CB01C01A524183098B42DD
:1004200001D38B01C01A524143098B4201D34B01C6
:10043000C01A524103098B4201D30B01C01A524129
:10044000C3088B4201D3CB00C01A524183088B42B0
:1004500001D38B00C01A524143088B4201D34B0099
:10046000C01A5241411A00D201465241104670470B
:100470005DE0CA0F00D04942031000D34042534010
:1004800000229C4603098B422DD3030A8B4212D3D0
:10049000FC22890112BA030A8B420CD38901921102
:1004A0008B4208D3890192118B4204D389013AD03F
:1004B000921100E08909C3098B4201D3CB01C01A14
:1004C000524183098B4201D38B01C01A5241430927
:1004D0008B4201D34B01C01A524103098B4201D315
:1004E0000B01C01A5241C3088B4201D3CB00C01A82
:1004F000524183088B4201D38B00C01A5241D9D29A
:1005000043088B4201D34B00C01A5241411A00D21A
:100510000146634652415B10104601D34042002B16
:1005200000D54942704763465B1000D3404201B595
:100530000020C046C04602BD7047704770470000AB
:10054000F0B50C46871A9C410D46861A9D4103D290
:10055000C01BA141D21963410D0D1F0DC94EEC1BEB
:10056000AE435CD07F057F0D0026002F51D02D05B6
:10057000AC46A943DD020123ED0A1B051D432023E0
:100580001B1B24D41746E740381871412F46E7401B
:10059000CC199D402818314661410C0D27D161448A
:1005A0009A4013D50023401C594152000ED14008F7
:1005B000400001224B005205D34207D305204007DB
:1005C000C14201D5B04900E0B0493046F0BD6B00F2
:1005D000002A00D001229A181F23203C1B1B01D5A2
:1005E000002302E0E540281871410C0DD7D001240A
:1005F00024050919C407CD0740084908E40F28431A
:100600006144002CD5D00024401C61419A40D0D1D7
:10061000CDE76A05520DD9D1C90FC907D5E79C4D61
:100620004E00002801D0012400E0002434195F00AE
:10063000002A01D0012600E00026BE19954FAC42E9
:100640000CD8AE420AD8B44206D001256D05EC4262
:10065000BCD010461946F0BD9942FCD00020394666
:10066000F0BDF0B51FB40C460F46811A9F412546D8
:10067000861A9D4106D20125ED076F40401ABC4104
:1006800052187B41210D1E0D8D1BAC467D4D8D43B7
:100690007ED075056D0D7CD00D05AE46AC431B03B9
:1006A0001B0B794D52429D41202366469B1B14D360
:1006B0001746F740381800260090744160462F46D0
:1006C0000741E41900989D402818664116D47146E8
:1006D00071189A4025D5012320E093182A466A41D3
:1006E0005200002B00D0521C1E23203E9B1B002BCF
:1006F00061DD3541EE1728186641E8D500187641CE
:100700005B1C9A4000D3401C4B05F3181524E340B2
:1007100010D3002B52D071467118D30FC01802D3DA
:10072000491C05B0F0BD0123DB079A42F9D140080E
:100730004000F6E701225205B21801D1002853D03B
:100740000123CC0ADB029943891E002A08D1020C3E
:1007500003D0020C0004103902E0024600202039C8
:100760000023550B05D112020823550B01D152016C
:100770000D23550C01D112011B1DD50C01D1920086
:100780009B1C150D01D152005B1C2025EE1A01E0C7
:100790002CE022E00546F54015439840CA1AE107CF
:1007A00069181305C918002ABBDA03204007081886
:1007B000C10FC9070FE071466118B2E7F1074008A1
:1007C0000843711071444A000CD001235B059A4222
:1007D000A7D2C90FC9070020A3E74905490D26D1B3
:1007E000002001E00028F4D100219AE7284D66009E
:1007F000002801D0012100E0002171185F00002ACB
:1008000001D0012600E00026BE19224FA94210D8CF
:10081000AE420ED8B14208D001256D05E94206D09E
:100820001946A802414010467BE79C4201D0214670
:1008300077E70020394674E710B50C465C4005D5D3
:100840000124E4076340FFF70CFF10BDFFF778FEBB
:1008500010BD30B40C465C4004D50124E40763406D
:1008600030BC6DE630BCFCE670B50124E4076140A5
:100870000D465D4002D4FFF763FE70BD6340FFF795
:10088000F0FE70BDFF0700000000F0FF0000F07FE9
:100890000000E0FF0000F87FF0B5F94D0C091E09DB
:1008A0002C402E402F468BB0A7437DD0B543FCD0C3
:1008B000002E7AD0002CFCD00D465D40ED0F254374
:1008C000AC1BFF25AD0464190894C502440DC90290
:1008D0002143500DDC0204430120C00701430443BF
:1008E000D2020191200C110C00958C460104234684
:1008F0008B430A9161460904E24D8A430991010A3A
:100900007D4449198039097805464D4301266D1803
:10091000F605751B6943C90C640B891C4C436418AC
:10092000B5012C1B250C2E04B4434C434D43210C24
:10093000691889090591009DE90701D00121C907BE
:1009400004912C4601996708CD072F434C08059D5B
:10095000E10B4D432D0C29466646754302950D4625
:1009600045432E46029D7D1BB44100950D465D43D7
:1009700001942C0C2F040D465543AE462D0C3D43DF
:10098000029503947546049C2D04641B049406D2BE
:10099000029C039D641C002675410395029401ACE2
:1009A00070CC009F7D1B01E03EE162E1B44109048F
:1009B0000095079101940599A4086143090C0C4620
:1009C0004443650BE7040C4666467443A646640B35
:1009D0003C43039502947446049DE4042C1B049448
:1009E00006D2029C039D641C002675410395029467
:1009F00001AC70CC009F7D1BB44101940C465C435C
:100A00000095650FE7000C465443A646640F3C432F
:100A1000039502947446049DE4002C1B049406D2B2
:100A2000029C039D641C002675410395029401AC51
:100A300070CC009F7D1BB441AE09AF06049DC90078
:100A4000AD092F43049DA406AD060495079D3443CC
:100A500069180791059DE10B4D432D0C294666460B
:100A6000754302950D4645432E46029D7D1BB441BC
:100A700000950D465D4301942C0C2F040D46554303
:100A8000AE462D0C3D43029503947546049C2D04FF
:100A9000641B049406D2029C039D641C00267541CD
:100AA0000395029401AC70CC009F7D1BB44101946E
:100AB0008C050694079C890A611800950791019C92
:100AC0000599A4086143090C0D464543680BEF04E2
:100AD0000D46644665436C0B3C43049FED047D1B4F
:100AE000AC4602D20025641C6841009E019D371B64
:100AF00085410846584301950C46460FC5005443AE
:100B0000600F28436546E4002C1B02D20025401CE0
:100B10006E41019D3F1AB5412846BD098006284314
:100B20008446A009BF064E020699A406761807431C
:100B3000079D002068410A99079019430020099BEE
:100B400000906046FF1913434041E20F64003A43AE
:100B5000A4460446D71A8C41A04203D90120009034
:100B600020463A46C70F941840416246D20F2243AE
:100B7000644664000494009CBE466400D71AA446F0
:100B8000044602978C417746002F01D1A04204D938
:100B90006046401C8446029A2046C40FA64694181C
:100BA0004041049A0546D20F224364466400D31A9A
:100BB0008D417146002901D1A84202D928461A4622
:100BC000641C10430122002800D01643610200205B
:100BD000079B891904465C410223002C02DB49185B
:100BE00013466441089DCE0A2D145D194B05670517
:100BF000E10A2C050D1908993E43C9076940002BED
:100C000008D0934006D30022761C5141002B01D11D
:100C1000760876001C4A002D43DB154241D0AA43DA
:100C20003FD030460BB0F0BD06180D464D41174C75
:100C30007642AC411AD395181C465C41134A6D426A
:100C4000A24113D3012252054C00D4420AD15C00C8
:100C5000D4420BD04B4002D592021143E2E7490047
:100C60004908DFE75940C90FC90718E000200849C3
:100C7000D8E7054801420DD10342F7D0F2E7000062
:100C80000000FF07355200000000F07F0000E0FF89
:100C90000000F87F114859400143C0124140002034
:100CA000C0E70123089A9B069A4205DC03225207FB
:100CB0008918C90FC907B5E7052252078918074ADD
:100CC0001143D2125140ADE770B515461C4602469D
:100CD0000B4628462146FFF7DFFD70BDFFFFFF7F73
:100CE00030B50346CA02400D1043164D164C0A1586
:100CF00002D02043002A06DBAA1A002A12DDD040C7
:100D0000FF2A0BDC30BD5205520D01D140004008D6
:100D1000AA1A07D4D0404042FF2A01DD002030BD8E
:100D20000028FCDD4A00002B01D0012000E000205B
:100D3000101801225205D042F0D8C817C0436040B5
:100D400030BD00001E040000000000800346CA02FF
:100D5000400D10B510430A1504D00124E4072043C8
:100D6000002A05DB0A4CA21A04D4D040FF2A00DD79
:100D7000002010BD4A00002B01D0012000E000201F
:100D8000101801225205D042F2D8C817C04310BD36
:100D90001E0400001F22030C02D10F22000402D007
:100DA000030E03D004E00020014670470002083A19
:100DB000030F01D10001121F830F01D18000921E89
:100DC000002801DB4000521E120551184205C012D6
:100DD000411810467047C10FC90700D04042012298
:100DE00092071143D6E701218907D3E7F0B58B4C71
:100DF0000F09254689B0BD437BD01D092646AE4369
:100E0000FAD00E465E402740F60F3E43254071D093
:100E100024012142FBD0FF24AD19A4042D1B03950E
:100E200001252D05DB02DB0AC9022B43C90A294330
:100E30001E010901040F130F050121431701880B3F
:100E4000820391432D098C46A90B1E438A039543C7
:100E5000B30B9A0396433F09BA0B9403A743029638
:100E60002E467E430497B6464E19D7190C46019676
:100E7000544305977E43371B7646BF1B3601B64663
:100E8000BE0B361900967646BC043719009C01D378
:100E9000641C00946400002F01D001263443029E9C
:100EA000049F754366467E430496760034196E00AF
:100EB00034190094029C019E1C196643751BAE46B2
:100EC000069465464519059C05956C43594375463E
:100ED0000891691A0191049E01465143A41B049193
:100EE000611A009C0791E10605D0610901221143B6
:100EF00002E072E06EE06109089D00272C0A2D06D1
:100F00006918049D7C412A0A2D066918019D6241D9
:100F1000AC0DAD026D185441079A910D920255190E
:100F20006141029A644658435443069B059A5A43CA
:100F3000121A131B9A0E9B015B187A41010B0005D4
:100F4000C3185141220A200644195A419A4200D23C
:100F5000491C01204002814203D315230226F64397
:100F600002E014230326F6432020C51AA9401746A1
:100F7000AF40DA400A4320460399D8400914731859
:100F800019055118039A3843D2075140AC4009D093
:100F90000122944006D30022401C5141002C01D173
:100FA000400840001E4A934212D301220398920641
:100FB000904207DB0520400709181A480143C01278
:100FC000414004E0032040070818C10FC907002072
:100FD00009B0F0BD0020F107FAE705180C464C41B6
:100FE00011486D42A04115D394181A465A410E4833
:100FF000644290410ED301204A004005824209D349
:101000005A00824206D35940C90F084AC907002036
:101010001143DDE700200649DAE700000000FF0782
:10102000FE070000FFFFFF7F0000E0FF0000F07FF1
:101030000000F87FF8B5224C4E00069DA6420AD863
:10104000A64201D1002806D15E00A64203D8A642DE
:101050000AD1002A08D00D24240425422CD0294688
:10106000002000F0A7F8F8BD0C461C430CD49942B0
:1010700002D0EFF30080F8BD904202D0EFF3008081
:10108000F8BDEFF30080F8BD09242407E5008B428A
:1010900006D0EFF30080A043591A06D2284304E09B
:1010A000101A05D3EFF30080A04380F30088F8BD49
:1010B000EFF30080A043F1E7009500F093F8F8BD4E
:1010C0000000E0FFF0B501230A0DDB0200249A4383
:1010D000E4430025002A28D05B1E9A4223D05B10EF
:1010E000D61AA64228DB721C48D0342E18D202220F
:1010F000142E2BD822D00B460D36B34001D1002838
:101100000FD00024701E0B468340DB0FF2412846AF
:10111000551EA943002B03D08918002C00D0914301
:10112000F0BD0124EEE79A4239D04A000243F7D0DD
:10113000C90FC9072846F0BD002223E00122C30FD2
:10114000400001D00024E2E70124E0E70346133E1B
:10115000B34011D00023741E0746A740FC0FF24194
:101160001746521E9043002CE5D0002B00D0521C95
:10117000C01969419043F0BD0123ECE701220B0344
:1011800018430AD00023C90FC9072846002AF2D005
:10119000002BF0D1054A1143F0BD0123F3E70A0308
:1011A00001D10028F8D000200149F0BD0000F03F37
:1011B0000000F87FCA0211D54A03520F002A04D05A
:1011C000C803C043012188407047054AEFF30081FE
:1011D00008010009104380F3008870470020704721
:1011E0000000003010B500200249029A00F02DF8EE
:1011F00010BD00000000F87F00487047CC050020BB
:101200007546FFF7F9FFAE46050069465346C0082C
:10121000C000854618B020B5FEF7CAFF60BC0027A5
:101220004908B6460026C0C5C0C5C0C5C0C5C0C5B2
:10123000C0C5C0C5C0C5403D49008D467047044685
:10124000C046C0462046FEF786FF10B50C46110783
:10125000090F092904D00A290AD008290CD104E071
:1012600011460820FFF7A6FF06E0510606D501E06B
:10127000510601D50120C007214610BDD10607D572
:1012800001010909CC084907000E0006044309E0E2
:10129000410F20024907000A0143200E00061D22CB
:1012A000D14101430846E7E701491820ABBEFEE7FC
:1012B00026000200704710B50120400300F018F826
:1012C0000120800300F014F80120C00300F010F8A2
:1012D00010BD72B600BFFEE710B50446034801F02A
:1012E00069FA024801F030FA10BD00000404002041
:1012F00010B50446054840692040002804D0034842
:1013000044612046FFF7E8FF10BD000000040140E3
:1013100070B503460A46002100240020DCE00126C7
:101320008E40156835402C46002C79D01579AD07D4
:10133000AD0F012D04D01579AD07AD0F022D18D1D9
:1013400098684E000325B5400646AE4330464E0031
:10135000D568B54028439860586801258D400646F9
:10136000AE4330461026556835402D098D40284340
:1013700058601579AD07AD0F032D0BD0D8684E001E
:101380000325B5400646AE4330464E009568B5404D
:101390002843D8601579AD07AD0F022D15D1CD08C2
:1013A000AE001D462035A8594D07EE0E0F25B5405D
:1013B0000646AE4330464E07F60E1569B540284343
:1013C000CD08AD001E462036705118684E0003252A
:1013D000B5400646AE4330461579AD07AD0F4E0019
:1013E000B540284318600326360455683540002D63
:1013F00071D03C4D6D6B012635433A4E75633A4DC5
:101400008E08B600A8598D072E0F0F25B540064649
:10141000AE43304605252D07AB4202D1002515E02D
:1014200059E0324DAB4201D101250FE0304DAB42C6
:1014300001D102250AE02F4DAB4201D1032505E081
:101440002D4DAB4201D1052500E006258E07360F54
:10145000B5402843244D8E08B600A851274D286872
:101460000546A54328460126360455683540002D1B
:1014700002D0054625432846204D28606868054669
:10148000A54328460126760455683540002D02D034
:10149000054625432846194D6860A8680546A543BA
:1014A00028460126360555683540002D02D00546F0
:1014B00025432846114DA860E8680546A5432846FF
:1014C0000126760555683540002D02D00546254396
:1014D00028460A4DE860491C1568CD40002D00D013
:1014E0001DE770BD001002400800014000040050DC
:1014F00000080050000C0050001C00500004014087
:10150000024613690B40002B01D0012000E00020AF
:10151000704710B5426913460B401B040C469443B8
:101520002343836110BD002A01D0816100E0816204
:101530007047000001480068704700001401002057
:10154000034800680349097840180149086070475A
:10155000140100201C01002010B500240848006878
:101560004021084306490860032000F00BF80028DA
:1015700001D0012401E000F05DF8204610BD00001C
:1015800000200240F0B587B0044600222146142016
:1015900000F06EF8142000F05DF82048406B042144
:1015A00008431E494863694602A800F099FA069864
:1015B00001900198002803D100F0CCFA064602E021
:1015C00000F0C8FA460000F0C5FA06461449304655
:1015D000FEF705FF471E13481349086013491248D8
:1015E000C160476000210161816001F057F8054644
:1015F000002D10D10C4801F0A7F80546002D0AD1A6
:10160000042C07D200222146142000F031F80848AB
:10161000046000E00125284607B0F0BD001002403C
:1016200040420F00000801408C050020E703000045
:10163000180100200648406B012108430449486313
:101640000846806B0904084301498863704700001D
:10165000001002400146002905DBCB06DB0E01220B
:101660009A40024B1A6000BF7047000000E100E0A2
:1016700070B504460D4616462946204604F074F817
:1016800070BD0000F8B504460027202120680840FE
:1016900020287BD120680840202800D100BF804846
:1016A000806B012109070840002805D17C48806B28
:1016B00008437B49886301277A480068FF2101318C
:1016C0000840002816D1774800680843754908602B
:1016D000FFF730FF064606E0FFF72CFF801B64286B
:1016E00001D90320F8BD6F480068FF21013108408F
:1016F0000028F1D06A480568032109050D4060689B
:101700000840A8420DD0091160680840884208D1FD
:1017100063480068012149040840884201D1012042
:10172000E0E75F48403000690321090408400546AE
:10173000002D3DD060680840A84239D020212068A3
:101740000840202834D1564840300069032109045C
:10175000884305465248403000690121C9040843C6
:101760004F4940310861084600690121C904884396
:101770004B494031086108460561801528408915AC
:10178000884215D1FFF7D6FE064608E038E0FFF79D
:10179000D1FE801B4449884201D90320A2E740487A
:1017A00040300069012149020840400A0028EED07B
:1017B00000BF00BF032109046068084088420AD1C5
:1017C0003748006809018843032212056168114007
:1017D00008433349086000BF3148403000690322A4
:1017E00012046168114008432D494031086100BF6F
:1017F000012F05D12A48806B8905884328498863D1
:101800002078C007C00F002809D025484030C068A4
:1018100080088000A168084321494031C860022146
:1018200020680840022809D11D484030C0680C21BA
:101830008843E16808431A494031C86004212068A0
:10184000084004280AD116484030C06803218902A4
:1018500088432169084312494031C8600821206843
:10186000084008280AD10E484030C0680321090307
:101870008843616908430A494031C8608021206873
:10188000084080280AD106484030C06803218904F6
:101890008843A169084302494031C860002021E71C
:1018A000001002400070004088130000F8B50446A4
:1018B0000E46002C01D10120F8BD83480068C00706
:1018C000C00FB04218D28048006840084000304342
:1018D0007D490860FFF72EFE054607E0FFF72AFE68
:1018E000401B7A49884201D90320E5E77648006821
:1018F000C007C00FB042F1D1022120680840022881
:1019000007D17348C068F0218843A1680843704933
:10191000C8602078C007C00F00284CD0606802283B
:1019200009D16B480068012149040840400C002897
:1019300024D10120C0E76068032809D16448006809
:10194000012149060840400E002817D10120B3E7C5
:101950006068012808D15E480068042108408008BA
:1019600000280BD10120A7E759480068012149024E
:101970000840400A002801D101209DE75448C06872
:1019800080088000616808435149C860FFF7D2FDB4
:101990000546606802280FD107E0FFF7CBFD401B2A
:1019A0004A49884201D9032086E74948C0680C218A
:1019B00008400828F1D134E0606803280FD107E01F
:1019C000FFF7B8FD401B4149884201D9032073E766
:1019D0003F48C0680C2108400C28F1D121E0606824
:1019E00001280FD107E0FFF7A5FD401B37498842CA
:1019F00001D9032060E73648C0680C21084004285C
:101A0000F1D10EE007E0FFF795FD401B2F4988421A
:101A100001D9032050E72E48C0680C210840002857
:101A2000F1D129480068C007C00FB04218D9264834
:101A3000006840084000304323490860FFF77AFD02
:101A4000054607E0FFF776FD401B2049884201D993
:101A5000032031E71C480068C007C00FB042F1D135
:101A6000042120680840042808D11948C0680721CB
:101A700009028843E16808431549C86008212068C5
:101A80000840082809D11248C0680721C9028843C4
:101A90002169C90008430E49C86000F06DF80C497F
:101AA000C968F022114009090A4A515CC8400A4934
:101AB00008600A480068FFF765FD0746002F01D05F
:101AC0003846F9E60020F7E60020024088130000BF
:101AD00000100240185B00082001002018010020BF
:101AE0000F2202600D4AD2689207920F42600B4AA1
:101AF000D268F0231A408260084AD26807231B028A
:101B00001A40C260054AD268DB001A40D20802615E
:101B1000034A1268D207D20F0A60704700100240D1
:101B200000200240014800687047000020010020AA
:101B300000B5FFF7F7FF0549C968072212021140F7
:101B4000090A034A515CC84000BD00000010024071
:101B5000285B000800B5FFF7E5FF0549C9680722C3
:101B6000D2021140C90A034A515CC84000BD0000BE
:101B700000100240285B0008F0B585B03548C06809
:101B800003900C2103980840002852D0042804D068
:101B900008280CD00C284BD10BE02E4800681021EF
:101BA0000840002801D02C4D00E02C4D4EE02C4D7B
:101BB0004CE00F21890403980840800C29490F5CF0
:101BC0000321890503980840800D441C2148C06802
:101BD00001210904084000280BD02148394603F0B0
:101BE0009CFD2246002301910090FEF7F3FA064681
:101BF0001CE0184800681021084000280BD0164847
:101C0000394603F08AFD2246002301910090FEF739
:101C1000E1FA06460AE01148394603F07EFD224605
:101C2000002301910090FEF7D5FA064635460DE0F7
:101C300000BF08484068072149030840400B029054
:101C40000298401C01218140CD0300BF00BF2846FF
:101C500005B0F0BD0010024000093D000024F40072
:101C600000127A00305B0008FEB50446002C01D15A
:101C70000120FEBDF948C6680C210E40C76801214D
:101C800009040F402078C007C00F002872D0082E2A
:101C900004D00C2E0FD1084687420CD1EF480068C3
:101CA000012149040840400C002863D060680028E6
:101CB00060D10120DDE700BF01210904606888428E
:101CC00005D1E64800680843E449086027E005219B
:101CD0000904606888420ED1E04800680121890447
:101CE0000843DE49086008460068012109040843EA
:101CF000DA49086013E0D9480068012109048843E3
:101D0000D64908600846006801210904084000908F
:101D100000BFD248006889008843D049086000BFEE
:101D20006068002813D0FFF705FC054606E0FFF7C2
:101D300001FC401B642801D903209AE7C7480068CA
:101D4000012149040840400C0028F0D012E0FFF7C0
:101D5000F1FB054606E0FFF7EDFB401B642801D9C7
:101D6000032086E7BD480068012149040840400C73
:101D70000028F0D102212068084002287BD1E068C9
:101D80000290042E03D00C2E35D1002F33D1B3484E
:101D90000068042108408008002804D00298002828
:101DA00001D1012065E7AD4840681F210902884341
:101DB000216909020843A9494860084600680921C9
:101DC000884302990843A5490860FFF7D5FEA34957
:101DD000C968F02211400909A14A515CC840A149D3
:101DE0000860A1480068FFF7CDFB0190019800282A
:101DF00041D001983DE70298002824D09748006818
:101E0000092188430299084394490860FFF792FB2F
:101E1000054606E0FFF78EFB401B022801D9032090
:101E200027E78E4800680421084080080028F1D088
:101E30008A4840681F210902884321690902084332
:101E40008649486017E0854800684008400083499B
:101E50000860FFF76FFB054606E0FFF76BFB401BD2
:101E6000022801D9032004E77C48006804210840C7
:101E700080080028F1D1102120680840102868D17E
:101E8000002E37D17548006849010840400A0028F3
:101E900004D0A069002801D10120EAE66F4840681B
:101EA000072149038843216A08436C494860084672
:101EB00040680002000A217F09060843674948601C
:101EC000206A400B401C01218140C8036349C96856
:101ED000F02211400909624A515CC840614908601A
:101EE00061480068FFF74EFB0190019800284BD035
:101EF0000198BEE6A06900282CD058480068FF2150
:101F00000131084355490860FFF714FB054606E018
:101F1000FFF710FB401B022801D90320A9E64F4818
:101F20000068012149020840400A0028F0D04B48CF
:101F30004068072149038843216A084347494860AC
:101F4000084640680002000A217F09060843434909
:101F5000486019E041480068FF21013188433F494A
:101F60000860FFF7E7FA054606E0FFF7E3FA401BD3
:101F7000022801D903207CE6384800680121490283
:101F80000840400A0028F0D10821206808400828AD
:101F900039D1606900281BD03048403000690121E8
:101FA00008432E4940310861FFF7C4FA054606E0B0
:101FB000FFF7C0FA401B022801D9032059E6274841
:101FC000403000690221084040080028F0D01AE0A3
:101FD00022484030006940084000204940310861F3
:101FE000FFF7A8FA054606E0FFF7A4FA401B02280F
:101FF00001D903203DE6194840300069022108401C
:1020000040080028F0D104212068084004287BD132
:10201000002000901148806B89060840002806D1F6
:102020000E48806B08430D498863012000900F48DB
:102030000068FF2101310840002820D10B480068CA
:1020400008430A490860FFF775FA054610E0FFF7F4
:1020500071FA401B64280BD903200AE600100240E5
:10206000185B0008200100201801002000700040CB
:1020700085480068FF21013108400028E7D000BFF3
:10208000FF210131A068884205D1804800690843DA
:102090007E49086130E0A06800280DD17B480069C6
:1020A000FF21013188437949086108460069091513
:1020B0008843764908611FE005210902A06888422B
:1020C0000DD1724800690121890208436F490861F6
:1020D00008460069891508436C4908610CE06B48A3
:1020E0000069FF2101318843684908610846006999
:1020F000091588436549086100BFA068002815D00C
:10210000FFF718FA054608E031E0FFF713FA401B25
:102110005F49884201D90320ABE55C480069012191
:1021200049020840400A0028EFD013E0FFF702FA06
:10213000054607E0FFF7FEF9401B5549884201D9E3
:10214000032096E551480069012149020840400AF0
:102150000028EFD10098012808D14C484038806B06
:1021600001210907884349494039886300BF606AF3
:1021700000284CD00C2E69D0606A022848D1434810
:102180004038006801210906884340494039086009
:10219000FFF7D0F9054606E0FFF7CCF9401B02280F
:1021A00001D9032065E53948403800680121490616
:1021B0000840400E0028EFD1E16AA06A0843216B75
:1021C000084332494039C968FD221204914308434B
:1021D0002E494039C86008460068012109060843B5
:1021E0002A4940390860FFF7A5F9054606E0FFF7E0
:1021F000A1F9401B022801D903203AE523484038C1
:102200000068012149060840400E0028EFD038E060
:102210001E48403800680121090688431B4940399F
:102220000860FFF787F9054606E0FFF783F9401BD2
:10223000022801D903201CE5144840380068012118
:1022400049060840400E0028EFD11AE0606A0128D4
:1022500000D10EE50D484038C76801200004384021
:10226000A16A88420BD10F2080043840E16A88427D
:1022700005D1032080053840216B884201D0012020
:10228000F7E40020F5E40000007000404010024038
:102290008813000010B50446002C01D1012010BDA8
:1022A000606A002808D1FF2105316068884200D1AA
:1022B00005E00021E16102E000212161616100216E
:1022C000A1625120005D002804D150200155204614
:1022D00000F048F802215120015520680068402193
:1022E000884321680860FF21053160680840212289
:1022F0009202A168114008430122D202E168114014
:1023000008430222216911400843217DC907C90FF2
:1023100008431202A169114008433822E1691140C3
:1023200008438022216A114008439201A16A1140AA
:10233000084321680860A069000C042108401022AD
:10234000616A11400843216848602068C069D10172
:1023500088432168C8610020606501215120015532
:1023600000209CE710B586B00446142101A8FEF7B2
:1023700034F814492068884222D11348406B8914EC
:1023800008431149486300BF0846C06A0121084359
:102390000D49C8620846C06AC007C00F009000BF60
:1023A00000BFE02001900220029000200390032053
:1023B00004900020059001A905200007FEF7A8FF62
:1023C00006B010BD0030014000100240FFB587B0DC
:1023D00004461D46109E0120039000200290E068F4
:1023E000002800D000BF00BF5020005D012802D1AE
:1023F00002200BB0F0BD01215020015500BFFFF7B6
:1024000099F807465120005D049060680590069594
:10241000049801280DD0FF2105310598884205D187
:10242000A068002802D10498042802D0022002905B
:10243000E9E00898002804D00998002801D0002D70
:1024400002D101200290DEE05120005D042802D07C
:10245000052151200155002060650998A063E5879A
:10246000A58708982063E586A5860020206460641F
:102470002068006840210840402804D02068006897
:102480000843216808600121C902E06888424FD1F1
:102490006068002802D00698012809D1206B0088C6
:1024A0002168C860206B801C2063E08E401EE0869F
:1024B00037E02068806802210840022811D1E08EB0
:1024C00000280ED0039801280BD1206B00882168CA
:1024D000C860206B801C2063E08E401EE0860020D8
:1024E000039020688068C007C00F00280ED0E08FDE
:1024F00000280BD02068C068A16B0880A06B801CEE
:10250000A063E08F401EE08701200390FFF712F8E0
:10251000C01BB04205D3701C002802D003200290DB
:1025200071E0E08E0028C4D1E08F0028C1D150E0D6
:102530006068002802D00698012809D1206B007835
:1025400021680873206B401C2063E08E401EE086EB
:1025500039E02068806802210840022811D1E08E0D
:1025600000280ED0039801280BD1206B0078216839
:102570000873206B401C2063E08E401EE086002024
:10258000039020688068C007C00F00280ED0E08F3D
:1025900000280BD02068C068A16B0870A06B401C9D
:1025A000A063E08F401EE08701200390FEF7C2FF8A
:1025B000C01BB04202D3701C002801D1002E02D1F2
:1025C000032002901FE0E08E0028C2D1E08F002897
:1025D000BFD13A463146204600F090FF002804D093
:1025E00001200290202060650DE0A068002809D13C
:1025F00000BF01902068C068019020688068019049
:1026000000BF00BF00BF01215120015500BF0021C4
:102610005020015500BF0298EBE6000030B502469D
:102620000B4600BF3820805C012801D1022030BD5C
:1026300001253820855400BF0225392085541068B3
:1026400044681068816870252046A84304461868CD
:102650000443106844600125AD071068A84207D004
:102660000C4D1068A84203D00B4D1068A84207D14A
:1026700080250846A84301465868014310688160D8
:1026800001253920855400BF00253820855400BF1E
:102690000020CCE7000801400014014010B50446BA
:1026A000002C01D1012010BD3920005D002805D18A
:1026B000002138200155204600F018F80221392069
:1026C0000155211D206802F07BFB01213E200155B0
:1026D00000BF3A2001553B2001553C2001553D20CB
:1026E000015500BF392001550020DCE710B5044634
:1026F00001218907206888420ED11148806B012191
:1027000008430F498863002211460F20FEF7B0FFEF
:102710000F20FEF79FFF11E00A49206888420DD183
:102720000748406B202108430549486300221146B1
:102730001620FEF79DFF1620FEF78CFF10BD00004F
:10274000001002400014014001463920405C01287D
:1027500001D0012070470223392043540868C06823
:10276000012318430B68D86001239B07086898422F
:1027700007D00E4B0868984203D00D4B086898426A
:102780000CD1086880684207520F062A0CD00868EE
:102790000068012318430B68186005E008680068AA
:1027A000012318430B6818600020D3E7000801409C
:1027B0000014014001460868C068400840000A68EB
:1027C000D06000BF0868006A074A1040002805D1A1
:1027D00008680068400840000A68106000BF0122D5
:1027E000392042540020704711110000F8B504460A
:1027F0000D460020009000BF3820005D012801D167
:102800000220F8BD01213820015500BF02213920E6
:102810000155206886687721304688430646FF21A7
:10282000090230468843064620688660286850289A
:1028300034D00CDC202851D004DC00284CD01028E7
:1028400052D14AE030284AD040284DD13AE06028A1
:102850002ED0702807D001210903401A02D0401A57
:1028600042D10DE043E0EB686A68A968206802F095
:10287000DDFA20688668772006432068866036E0A7
:10288000EB686A68A968206802F0D0FA206880685E
:102890000121890308432168886028E0EA686968A3
:1028A000206802F0DDFA5021206802F0CDFA1EE027
:1028B000EA686968206802F0ECFA6021206802F09A
:1028C000C3FA14E0EA686968206802F0C9FA402196
:1028D000206802F0B9FA0AE000BF00BF00BF296813
:1028E000206802F0B1FA02E00120009000BF00BFB2
:1028F00001213920015500BF00213820015500BFBA
:1029000000987EE7704710B50446206800690221F0
:102910000840400800281CD02068C06808404008D3
:10292000002816D0481F2168086101202076206801
:1029300080698007800F002803D02046FFF7E2FF60
:1029400005E0204600F09DF8204600F09BF80020AE
:1029500020762068006904210840800800281DD0E6
:102960002068C06808408008002817D0C843216844
:10297000086102202076206880690321090208404E
:10298000002803D02046FFF7BDFF05E0204600F0F9
:1029900078F8204600F076F800202076206800695C
:1029A00008210840C00800281CD02068C0680840E2
:1029B000C008002816D0C84321680861042020768A
:1029C0002068C0698007800F002803D02046FFF7E9
:1029D00099FF05E0204600F054F8204600F052F838
:1029E0000020207620680069102108400009002896
:1029F0001DD02068C06808400009002817D0C843CF
:102A000021680861082020762068C0690321090236
:102A10000840002803D02046FFF774FF05E0204659
:102A200000F02FF8204600F02DF8002020762068D6
:102A30000069C007C00F01214840484000280CD061
:102A40002068C068084048404840002805D0C81E9B
:102A500021680861204600F017F8206800694021CD
:102A60000840800900280BD02068C0680840800911
:102A7000002805D0C84321680861204600F04EF8C0
:102A800010BD70477047000070B5044600251D4911
:102A90002068884201D1FEF753FD1B492068884217
:102AA00028D11A4800781A490978884216DA012292
:102AB000110205200007FEF736FD00E06D1C012D18
:102AC000FCDB0022FF21013105200007FEF72BFD72
:102AD0000E480078401C0D49087012E000200B4998
:102AE00008700C48FFF766FE012211030A48FEF742
:102AF0001AFD06E0012189072068884201D100F013
:102B000011FA70BD0008014000140140A40000202B
:102B1000A5000020440400200004005070477047C6
:102B200010B50446002C01D1012010BDA069002879
:102B300000D000E000BFA06F002805D10021742064
:102B40000155204600F02CF82420A067206800687A
:102B50004008400021680860204602F049FB012837
:102B600000D1E2E7606A002802D0204602F0AAF90C
:102B7000206840680921C9028843216848602068AC
:102B800080682A21884321688860206800680121C4
:102B9000084321680860204602F00CFAC5E70000EF
:102BA00010B586B00446142101A8FDF716FC2A4989
:102BB0002068884225D12948406B012189030843B8
:102BC0002649486300BF0846C06A012108432349DB
:102BD000C8620846C06AC007C00F009000BF00BFAF
:102BE0000320400201900220029000200390032065
:102BF00004900420059001A905200007FEF788FB3A
:102C000027E017492068884223D11448806B0121AE
:102C1000490408431149886300BF0846C06A01217E
:102C200008430E49C8620846C06AC007C00F00903A
:102C300000BF00BF0C2001900220029000200390F2
:102C4000032004900420059001A905200007FEF749
:102C50005FFB06B010BD00000038014000100240CC
:102C600000440040F8B504460D461646E06F2028A3
:102C700043D1002D01D0002E01D10120F8BD01214A
:102C80000903A068884208D12069002805D1E80717
:102C9000C00F002801D00120F0E700BF7420005DC4
:102CA000012801D10220E9E701217420015500BF6C
:102CB0000020206612492068884218D020684068A9
:102CC0000121C9050840002811D000BF02F088FD8D
:102CD0000746012002F087FD20680068012189066F
:102CE000084321680860384602F07DFD00BF324687
:102CF0002946204602F004FCC0E70220BEE700009F
:102D0000004800407047FFB583B004460D461746A3
:102D1000A06F202876D1002D01D0002F02D10120F4
:102D200007B0F0BD01210903A068884208D12069DD
:102D3000002805D1E807C00F002801D00120EFE7E7
:102D400000BF7420005D012801D10220E8E70121C5
:102D50007420015500BF0021802001512120A0676F
:102D6000FEF7E8FB01905020075352200753012142
:102D70000903A068884205D12069002802D10026F5
:102D8000029502E02E460020029000BF0021742030
:102D9000015500BF21E006980090002280212046C6
:102DA000019B02F02DFC002801D00320B8E7002E83
:102DB00009D102980088C005C00D21688862029878
:102DC000801C029003E0307821688862761C5220D3
:102DD000005B401E81B2522001535220005B00284C
:102DE000D9D106980090002240212046019B02F094
:102DF00007FC002802D0032092E703E02020A06710
:102E000000208DE702208BE700BFFEE710B50446E7
:102E100002F0ECFC0120400384421BD174203B49AA
:102E2000087072204870692088706720C870384820
:102E30000068042102693548904720203549087010
:102E40003548007840003549085A354948600846F9
:102E5000FFF77AFC01208003844226D12E480078B7
:102E6000401C2D4908700A212B480078FDF7B7FA5D
:102E70002948017063202549087027480078487068
:102E80002448007888707A20C8702148006804219E
:102E900002691E48904720201E4908701E4800788D
:102EA00040001E49085A1E4948600120C003844260
:102EB00029D120201749087017480078401E16496C
:102EC00008700A2114480078FDF789FA1248017049
:102ED00063200E4908701048007848700D4800784B
:102EE00088707A20C8700A4800680421026907487F
:102EF000904720200749087007480078400007499C
:102F0000085A07494860002010BD0000BB0000209F
:102F1000A8000020A50000200A01002000010020D8
:102F20004404002010B51E48FFF744FC012149036A
:102F30001C48FEF7E5FA00280FD100220121090301
:102F40001848FEF7F0FA012149031748FEF7E1FAA5
:102F500001204003FFF75AFF20E0012189031148B7
:102F6000FEF7CEFA002809D1012149030E48FEF7E9
:102F7000D0FA01208003FFF749FF0FE00121C903C8
:102F80000848FEF7BDFA002808D101214903064888
:102F9000FEF7BFFA0120C003FFF738FF002010BD85
:102FA00004040020000400500008005000B587B061
:102FB000142102A8FDF711FA00BF5D48C06A042180
:102FC00008435B49C8620846C06A04210840019072
:102FD00000BF00BF00BF5648C06A80210843544963
:102FE000C8620846C06A80210840019000BF00BF47
:102FF00000BF4F48C06A012108434D49C8620846D6
:10300000C06AC007C00F019000BF00BF00BF0846E4
:10301000C06A022108434649C8620846C06A0221C4
:103020000840019000BF00BF002209034148FEF79D
:103030007AFA0022012109033F48FEF774FA0022C0
:10304000FF21013105200007FEF76DFA012211036F
:1030500005200007FEF767FA012211023648FEF745
:1030600062FA0120400302900120039000200490A6
:10307000059002A92F48FEF74BF91320029000207B
:103080000390049002A905200007FEF741F92B48A0
:10309000029000200390049002A92748FEF738F917
:1030A00001200003029001200390022004900320DD
:1030B000059002A92048FEF72BF907204003029053
:1030C0003120000403900120049002A91A48FEF761
:1030D0001FF91120000202900120039004900320A8
:1030E000059002A905200007FEF712F90120C00291
:1030F0000290002003900120049002A905200007FF
:10310000FEF706F9FF2001300290012003900490A1
:103110000320059002A90848FEF7FAF8002211469C
:103120000720FEF7A5FA0720FEF794FA07B000BDC6
:10313000001002400008005000040050030400008A
:1031400010B50E480E490860FF2005304860002188
:103150000B488160C16001614161012149028161C7
:103160000021C1610162416281620721C162FFF7F2
:1031700091F8002801D0FEF7ACF810BD00300140F6
:10318000AC03002000B587B00020039004900590A8
:103190000690019002901548154908606320486028
:1031A0000021134881601349C16000210161416120
:1031B000FFF774FA002801D0FEF78BF80120000316
:1031C000039003A90A48FFF711FB002801D0FEF77E
:1031D00080F800200190029001A90548FFF71EFA2F
:1031E000002801D0FEF775F807B000BD00140140BB
:1031F000440400207F3E000000B587B0002003900B
:1032000004900590069001900290012080071549D6
:103210000860092048600021124881601249C1609D
:10322000002101614161FFF739FA002801D0FEF762
:1032300050F801200003039003A90A48FFF7D6FACB
:10324000002801D0FEF745F800200190029001A966
:103250000448FFF7E3F9002801D0FEF73AF807B079
:1032600000BD000004040020FF7C000010B50E48E3
:103270000E490860E1204002486000210B4881604F
:10328000C16001610C21416100218161C161016264
:103290000020064948620846FFF742FC002801D09A
:1032A000FEF717F810BD000000380140840400202C
:1032B00010B50E480E490860E12040024860002128
:1032C0000B488160C16001610C2141610021816175
:1032D000C16101620020064948620846FFF720FCF0
:1032E000002801D0FDF7F5FF10BD000000440040AC
:1032F0000805002000BFFEE770B501253C490968BC
:1033000048698047C4B202F071FA3A480068002860
:1033100006D0012808D002282ED0032865D118E055
:1033200001203449086061E05420334908700846A0
:10333000FCF7D2FF86B22E480068314602692E485B
:10334000904703202B4908602C4800682C490860EE
:103350004CE0042C07D10220264908602449096862
:103360008868804707E002F041FA02F03FFA02F075
:103370003DFA02F03BFA39E020480068204909682C
:10338000411AA8006422504381422AD2022C24D13F
:10339000174800681B49C2681B4890471A480078C4
:1033A000302814DB18480079392810DC0D20164924
:1033B00088710A20C8710846FCF78EFF86B2134B4D
:1033C000324611491248FFF79EFC02F0CFFA0D4831
:1033D00001880D48FCF7FFFF06E002200549086060
:1033E00002E000200349086000E000BF00BF70BD9C
:1033F000A800002010010020BB00002014010020C4
:103400000C010020A6000020CF000020FFFF0000DC
:103410008404002070B52249096848698047C5B214
:10342000022D3CD11E4800681E49C2681E489047C4
:103430001D480078742808D102F098FA1B48FFF75D
:10344000B9F91A48FFF780F924E017480078632893
:103450000BD117488078174908701548407840000C
:103460001549085A1149486014E00F48007854285B
:1034700010D1012400BF07E00B48005D742802D181
:1034800002F074FA04E0641C064800888442F3DB0E
:1034900000BF00BF034801880348FCF79CFF70BDD4
:1034A000A8000020A6000020CF0000204404002037
:1034B000BB000020A5000020000100207047000094
:1034C0000748084908600848486008488860084874
:1034D000C86008480861084848610846704700000D
:1034E000913D000824010020E94A0008214C000811
:1034F000693D0008F94B0008194A0008FEB504466A
:103500000D461646182119480068FCF768FF074663
:103510001749FCF764FF7D21C90048430190FF2152
:103520000531606888420ED12B460022802120465A
:10353000009600F01FF8002815D0606D2021084388
:1035400060650320FEBD00BF0198002800D109E09E
:103550000198401E01902068806880210840C009C1
:103560000028F1D100BF0020ECE70000200100207E
:1035700040420F00FFB583B004460D461E46FDF7DE
:10358000D9FF0C99401A371AFDF7D4FF01902F4844
:1035900000684001000D7843029049E0701C00284B
:1035A00046D0FDF7C7FF0199401AB84201D2002F5B
:1035B00037D120684068E021884321684860FF21B6
:1035C0000531606888420ED10121C903A068884294
:1035D00003D04911A068884205D1206800684021C5
:1035E00088432168086001214903A06A88420DD1FF
:1035F00000BF206800688843216808602068006870
:103600000121490308432168086000BF01215120BE
:10361000015500BF00215020015500BF032007B015
:10362000F0BD0298002800D100270298401E0290A9
:10363000206880682840A84201D1012100E00021D3
:1036400005988142AAD10020E9E70000200100206E
:103650007047000070B5184800682030C0794007F6
:10366000400F421C144800682030007C8026304007
:10367000C309114800682030007C0626304000282D
:1036800001D0012000E0002004460B4800682030F3
:10369000817C094800682030007C102630401028CA
:1036A00001D1022000E000200546D0180019401882
:1036B000401980B270BD00001C00002070B50546A6
:1036C0000C46064800882080002004490880228893
:1036D00003492846FCF722FE70BD000030000020A0
:1036E0003C010020F0B58DB001200C90F748007827
:1036F000030002F02AF80C070889FCFAF9F8F7F63B
:10370000F5F4F3F282E201F0CDFAF14800682030DE
:10371000007C10210840102805D14C21EC4800689D
:103720004030017004E00C21E9480068403001702D
:10373000E121E7480068403041700222E448016816
:103740004031402001F084FA052000F0C1FAFF2149
:103750000131E048FCF73FFEDF494868FDF743FBD5
:1037600003910290FFF776FF0190FDF73CFB0446C2
:103770000022DA4BFDF73AFB0646039B029AFDF75F
:103780008BF80022D64B05910490FDF72FFB079193
:10379000069002F09DF80022D24B09910890FDF7A7
:1037A0004BF80B910A90FDF7D1FA80B2CE49086030
:1037B00008460068400809684018CB490860084678
:1037C0000068CA490860CA480068CA490860CA490E
:1037D0000860A021BE48006820304175BC480068E0
:1037E0002030417D352001F02BFA0020C3490870BC
:1037F000C3490870C3490870C3490870C3490880A9
:103800000220B249087001E201F05CF901280AD1F6
:10381000BA480078002806D10120B8490870B44899
:103820000068B549086001F03DF901281FD1B3488F
:10383000007801281BD1B2480078002817D1012058
:10384000AF49087000F01EFAB14A03C200F0F0F967
:10385000B049086000F02EFAAF490870A44800682B
:10386000A4490860A4490860032098490870A44846
:103870000078002818D1A1480078012814D19C486C
:1038800000689D490968401A9849096888420BD91F
:1038900001208E4908708E480068407B202210432A
:1038A00001460D2001F0CCF995480078002813D18D
:1038B0009248007800280FD19248007800280BD158
:1038C0008B4800688B490968401A87490968884213
:1038D00002D905207D49087098E196E18FE188E1E1
:1038E00039E1D5E0ABE096E081E077E0FFE787489B
:1038F0000088FF210131884203DD062073490870EA
:1039000084E101F0C1F8012857D17948006879496C
:1039100008607E480088002833D17B480078002862
:103920002FD16B4800682030007C8021084080281F
:1039300004D10121754801F0CDF805E06448006824
:103940002030807C71490880704A12786E4B1B7859
:10395000D21AD1B25F4A6C4B1B78D01801F0BAF87A
:103960006A48007868490978401A67490978401818
:1039700065490870012063490870042053490870A4
:103980001BE0624A1278604B1B78D21AD1B2514ABE
:103990005D4B1B78D01801F09DF85C4800785A49BF
:1039A0000978401A58490978401857490870012089
:1039B000544908700420454908705248007800288E
:1039C0000BD14B4800684B490968401A46490968C1
:1039D000884202D905203D49087017E100204A4974
:1039E000087001203949087002200C900EE1002077
:1039F000454908704549088035480068407B2022C9
:103A0000104301460D2001F01BF901202F490870D9
:103A100003200C90FAE000203B4908703B490880E5
:103A20002B480068407B2022104301460D2001F006
:103A300007F901202549087006200C90E6E001F006
:103A40003BF90121224800684030017020212048C4
:103A500000684030417002221D480168403140201A
:103A600001F0F6F898211A4800682030417518488E
:103A700000682030417D352001F0E2F8032000F09D
:103A800027F9082011490870002024490870BDE07A
:103A900001F010F801285DD10D4800682030007C4D
:103AA00080210840802803D101211D4801F0F0F851
:103AB0001B480088002837DD19480088402833DC7F
:103AC000174800781749087031E0000021000020F5
:103AD0001C0000203C0100200000002000002040CD
:103AE00000408F400000F03F24000020280000200C
:103AF00014010020480000204C0000202C00002071
:103B00002D0000202E000020320000203000002078
:103B10003800002040000020440000203300002036
:103B2000500000202000002020203A490870394829
:103B30000178394801F0ACF83848007835490978FF
:103B40004018364908703648006836490860092030
:103B5000354908705AE000F09EFF00282ED1334806
:103B600000882E490978401A2A49097888420FDDD1
:103B700029492A4A127888182649097801F088F8D4
:103B8000264800782349097840182449087015E030
:103B9000264A1278214B1B78D21AD1B21E4A1F4BEB
:103BA0001B78D01801F074F8204800781B49097878
:103BB000401A1A49097840181849087000F064FF43
:103BC000012809D116480068164908600A201649DC
:103BD0000870012000F07CF811480068114909685C
:103BE000401A7D21C900884202D90B200E49087075
:103BF0000CE000200C49087004200C9006E0002026
:103C00000949087005200C9000E000BF00BF0C9827
:103C10000DB0F0BD200000203C010020330000204A
:103C2000140100205400002021000020500000203A
:103C3000F0B585B00222114801681B311B2000F04D
:103C400003FF0E490968C97E09020C4A1268127FF7
:103C500011430846FDF7BFF80446FDF741F801900F
:103C6000FDF7B9F806460022054BFDF7BFF80391B2
:103C70000290FDF735F805B0F0BD00001C000020F3
:103C800080844E4070B50A4801681131112000F05F
:103C9000D1FE07490968487CFDF7A5F804460022D3
:103CA00001239B07FCF7F8FD0122D207514070BDAC
:103CB0001C00002010B5054801680C310C2000F0F4
:103CC000B9FE02480068007B401110BD1C000020B6
:103CD00070B504460025144800684078F8218843F0
:103CE000124908700846007884421CD0032C01D188
:103CF000012500E000250E480078854204D00C48DC
:103D00000570284600F0CDFF074800684078F8218C
:103D10000840204304490968487003480068417816
:103D2000012000F08DFF70BD1C0000205800002015
:103D30005900002001490870704700002100002050
:103D400070B504460D4605480580028821460448A2
:103D5000FCF7E4FA07200349087070BD500000200A
:103D60003C0100202100002070B504460D460748A4
:103D70000078002804D129462046FFF79FFC03E085
:103D80002946204600F034F870BD0000A000002055
:103D900008B50E480E4908600E49086000F01EF88C
:103DA00000F0A2FE04E001226946422000F04CFE31
:103DB000684600781228F6D10120074908700846A5
:103DC000007800F0ABFE00F027F808BD3C030020AF
:103DD0001C0000207C000020A000002010B5012263
:103DE00011020248FDF79FFB10BD000000040050C7
:103DF00070B505460C46064800882080002004491E
:103E00000880228803492846FCF788FA70BD000024
:103E1000820000203C02002010B5002027490870D5
:103E200000F092FB6F222649012000F00DFE2020B9
:103E30002449096808736F222149012000F008FF16
:103E40002149086800F0B0FC1F49887900F07EFD28
:103E50001D49C87900F082FB1B49087A00F070FC0C
:103E60001949487900F052FD1749487A00F096FB4D
:103E7000164800F09BFD1449087E00F081FC0120EB
:103E800000F0AAFB104800681149884206D980203A
:103E900000F010FC012000F027FC05E0002000F0FD
:103EA00009FC002000F020FC07490420085600F01F
:103EB000A7FC012000F0CCFB10BD0000800000201A
:103EC0003D0300207C00002060000020FF03000074
:103ED00000AE4C2DFEB501200290FE480078030094
:103EE00001F033FC0B07087AD0F1F0EFEEEDECEBCC
:103EF000ED000BE300F0D6FE012000F0A9FB9D20B1
:103F0000F54909684874F4480068417C112000F0C4
:103F100097FEF248C07A012815D1F048017BEE489F
:103F2000006820300171EC4801681C311C2000F051
:103F300081FDE9490968097F8906090EE84A505858
:103F400000F032FC04E0FF21E348006820300171FA
:103F5000E148006820300179242000F071FE002142
:103F6000DD48006820304177DB48006820308177E9
:103F70000222D94801683D31402000F069FED7484F
:103F8000807A012803D1062000F062FB0EE0D248BF
:103F90000068C07BD04909684873CF480068417BFE
:103FA0000D2000F04DFE052000F052FBFF210131F5
:103FB000CC48FCF710FAC9484069CB490860CB48A7
:103FC0000068CB4908600220C24908706F22C949C5
:103FD000012000F039FD99E200F056FD01281DD1C5
:103FE000C2480068C2490860BC48C07A01280ED1A6
:103FF000B94801681C311C2000F01CFDB649096855
:10400000097F8906090EB64A505800F0CDFB4021C1
:10401000122000F015FE0320AE49087000F042FDAA
:1040200001281ED1B1480068B1490860AB48C07A88
:1040300001280ED1A84801681C311C2000F0FAFCB0
:10404000A5490968097F8906090EA54A505800F05C
:10405000ABFB0221122000F0F3FD00F067FAA64945
:1040600008709E48807A01280BD1A0480068A049BA
:104070000968401A9C490968884202D90420954978
:10408000087043E2944801681231122000F0D2FC1B
:1040900091480068807C20210840202814D11220FB
:1040A00000F0CEFD8D48807A012802D18949087040
:1040B00002E002208749087028E20AE2E5E124E2F2
:1040C000DAE1B2E136E12FE101A9192000F0B2FCFA
:1040D000684600798021084000280DD068460079A4
:1040E000C043401C0006800E8449087008460078D2
:1040F000404240B2087004E06846007980107F4971
:104100000870754801681A311A2000F093FC734852
:1041100000687B49884230D2784800214156002906
:1041200019DA014600200856FCF755FE04460D46F4
:1041300069490968887EFCF756FE06460022714BE5
:10414000FCF77AFB22462B4601910090FCF774FBAA
:104150006D4A03C241E060490968887EFCF743FE6E
:1041600004466A4A6A4BFCF741FE06460022654B4C
:10417000FCF762FB644A03C22FE06048002141560D
:10418000002919DA014600200856FCF724FE0646ED
:104190000F4651490968887EFCF725FE0446002237
:1041A0005C4BFCF749FB32463B4601910090FCF723
:1041B00043FB554A03C210E047490968887EFCF773
:1041C00012FE0646514A524BFCF710FE04460022EE
:1041D000504BFCF731FB4C4A03C24048807A01281F
:1041E0002FD13D480068C07B3B49096848733A4875
:1041F0000068417B0D2000F023FD3848407A0128FB
:104200000DD1354800682030807843490880324815
:10421000006820308178334800F05CFC52E02E4882
:1042200001681331132000F005FC2B480068C07CA6
:104230003949088028480068C17C2A4800F04AFCB7
:1042400040E0254801681031102000F0F3FB2348BE
:10425000407A012819D120480068203080782E4902
:1042600008801D480068007C1B49096848731A488B
:104270000068417B0D2000F0E3FC17480068203007
:104280008178184800F026FC1CE0134801681331BF
:10429000132000F0CFFB10480068C07C1E49088046
:1042A0000D480068007C0C49096848730A4800689A
:1042B000417B0D2000F0C4FC07480068C17C094820
:1042C00000F008FC0548807A012827D101490870D0
:1042D00027E00000800000207C000020600000201B
:1042E0004C5A00083C0200209800002014010020D5
:1042F000940000203D030020900000208400002056
:10430000008F4233008064C0880000201B9E5E291D
:10431000CB10F13F00A063C08200002002207D4945
:10432000087002200290F1E001207A490870032011
:104330000290EBE000F0C0FC012000F089F9764823
:10434000C07A012819D1F520744909684874724867
:10435000017B7248006820300171704801681C318F
:104360001C2000F067FB6D490968097F8906090E6A
:104370006B4A505800F018FA08E0F72067490968BE
:104380004874002165480068203001716348006866
:1043900020300179242000F053FC60480068417C03
:1043A000112000F04DFC5F4801785C480068203027
:1043B00081705A48006820308178222000F040FC4B
:1043C000002056490968887354480068817B0E2094
:1043D00000F036FC51480068807B504909684873FA
:1043E0004E480068417B0D2000F02AFC4B480068D5
:1043F000203081784C4800F04BFC41214748006850
:1044000020304177402145480068203081770222E2
:10441000424801683D31402000F01AFC032000F0C2
:1044200017F906203B49087070E000F02DFB0128C9
:1044300006D10821122000F003FC0720354908703E
:1044400000F030FB012816D13348C07A01280ED184
:10445000324801681C311C2000F0ECFA2F49096831
:10446000097F8906090E2E4A505800F09DF9022155
:10447000122000F0E5FB49E0012000F0E9F80020FF
:10448000244908700420029040E0012000F0E0F888
:10449000FA2022490968487420480068417C1120AC
:1044A00000F0CEFB00211D480068203041771B48FA
:1044B0000068203081770222184801683D31402091
:1044C00000F0C6FB072000F0C3F80A20114908706D
:1044D0001CE000F0EFFA012816D10421122000F0B0
:1044E000AFFB00F0EFFA012809D10121122000F002
:1044F000A7FB0120074908700820029004E0002073
:10450000044908700720029000E000BF00BF029835
:10451000FEBD000080000020600000207C00002024
:104520004C5A00089C0000203C02002010B50548B1
:1045300001680C310C2000F07DFA02480068007B15
:10454000401110BD7C00002010B5034801683F31C8
:10455000422000F06FFA10BD7C00002010B5044628
:104560000C4801681D311D2000F064FA09480068FC
:10457000407FF121084061000843064909684877F7
:1045800004480068417F1D2000F05AFB0248C471B6
:1045900010BD00007C0000206000002010B5044623
:1045A0000B4801681D311D2000F044FA08480068DE
:1045B000407FFE21084020430549096848770448A8
:1045C0000068417F1D2000F03BFB0248447210BD93
:1045D0007C0000206000002010B504460C480168F3
:1045E0002631262000F026FA09480068203080791C
:1045F000F7210840E1000843054909682031887126
:104600000348006820308179262000F019FB10BD96
:104610007C00002010B504460C4801683031312080
:1046200000F008FA094800682030007CF8210840B2
:104630002043064909682031087404480068203086
:10464000017C312000F0FCFA10BD00007C0000204D
:1046500070B504460025144800684078F821884366
:10466000124908700846007884421CD0032C01D1FE
:10467000012500E000250E480078854204D00C4852
:104680000570284600F00DFB074800684078F821C7
:10469000084020430449096848700348006841788D
:1046A000012000F0CDFA70BD7C0000209E000020AB
:1046B0009F00002010B504460A480168093109200E
:1046C00000F0B8F907480068407A4006400E2043E1
:1046D00004490968487203480068417A092000F0DB
:1046E000AFFA10BD7C00002010B5044613480168E5
:1046F00049314D2000F09EF9104801680931092028
:1047000000F098F90D480068407A80210840802820
:1047100007D1012C0AD18721084800684030417236
:1047200004E0842105480068403041720348006875
:104730004030417A4D2000F083FA10BD7C0000200B
:1047400010B504460C4801681E311E2000F072F9B5
:1047500009480068807FFB210840A1000843064902
:104760000968887704480068817F1E2000F068FA95
:104770000248047210BD00007C0000206000002090
:1047800010B504460648006820308470044800686C
:1047900020308178222000F053FA0248047610BDC0
:1047A0007C000020600000207CB5064611480660B1
:1047B0003046FCF718FB044600220F4BFCF76CF860
:1047C00001910090FCF7C2FA06463002000E0B4938
:1047D000096888713004000E08490968C8710749E2
:1047E00009680E72032205480168891D062000F041
:1047F0002FFA7CBD6000002080844E407C000020A9
:1048000010B504463C4801680931092000F012F94E
:104810003948016849314D2000F00CF936480068EC
:10482000407A8021084080283FD1334800684030DA
:10483000407A8721084087281BD1052C00DA0524FF
:10484000142C00DD14242C480068407A8F21084085
:10485000703029490968487227480068407AF02179
:104860000840611F0907090F084323490968487276
:1048700038E0022C00DA0224112C00DD11241E483D
:104880000068407A8F21084070301B4909684872DF
:1048900019480068407AF0210840A11E0907090F55
:1048A00008431549096848721CE00020C04384424F
:1048B00000DA04460E2C00DD0E240F480068407A12
:1048C0008F21084070300C49096848720A48006816
:1048D000407AF0210840611C0907090F0843064986
:1048E0000968487204480068417A092000F0A8F974
:1048F0000248047110BD00007C0000206000002010
:1049000001490870704700008000002010B504467F
:104910000C4801681D311D2000F08CF80948006822
:10492000407F0007000F21010843064909684877C6
:1049300004480068417F1D2000F082F9024844715C
:1049400010BD00007C0000206000002010B504466F
:104950000C2C01DD0C2402E0062C00DA0624062CC7
:1049600003D10520FFF756FE02E00320FFF752FEB9
:104970000C4801681E311E2000F05CF809480068F0
:10498000807F0007000F21010843064909688877E6
:1049900004480068817F1E2000F052F902488471AB
:1049A00010BD00007C0000206000002010B504460F
:1049B00002220E4801681E311E2000F045F80B4807
:1049C0000068807FFC2108402112FC2291430843AB
:1049D00006490968887705490968CC7702220348A7
:1049E00001681E311E2000F033F910BD7C0000204C
:1049F00070B504460D4605480580028821460448E6
:104A0000FBF78CFC05200349087070BD9C0000205A
:104A10003C0200208000002010B5054800780028E6
:104A200002D1FEF75FFE10BDFFF754FAFBE700006E
:104A3000A000002070B504460D46012229462046FC
:104A400000F002F870BD0000F8B505460E461746A6
:104A50000022FF2101310B48FCF765FD6806400E7E
:104A600000F034F9002405E0002000F02FF9305563
:104A7000601CC4B2BC42F7DB012211020148FCF702
:104A800052FDF8BD0004005010B5012105200007BB
:104A9000FCF736FD10BD10B5022105200007FCF71C
:104AA0002FFD10BD10B5102105200007FCF728FDD3
:104AB00010BD000010B501210148FCF721FD10BD1B
:104AC0000004005010B502210148FCF719FD10BD8B
:104AD0000004005070B504460D462A4621460020C9
:104AE000FFF7B2FF70BD000010B5012000F072F8B2
:104AF0000948046800BF08480068001BFBD000207C
:104B000000F068F80448046800BF03480068001B10
:104B10000628FAD310BD00001401002010B5044689
:104B200028480078A04200D110BD264804702648CD
:104B30000470007801282AD10020FFF789FD23485E
:104B4000006840784006400E80302049096848706F
:104B50001E4800684178012000F072F80120FFF73C
:104B600077FD002119480068203041771748006818
:104B7000203081770222154801683D31402000F045
:104B800067F86F2212490120FFF75EFF18E000204E
:104B9000FFF75EFD0D48006840784006400E0B4967
:104BA00009684870094800684178012000F048F819
:104BB0000120FFF74DFD6F2205490120FFF744FF5B
:104BC00000BFB1E7A1000020A00000207C00002071
:104BD0003D03002010B50446012C06D1002201033C
:104BE00005200007FCF79FFC05E0012211030520CA
:104BF0000007FCF798FC10BD70B504460D46074849
:104C00000078002804D129462046FFF799F803E0F0
:104C100029462046FFF7ECFE70BD0000A0000020F2
:104C200010B506480078002803D10120FFF782F86C
:104C300002E00120FFF764FE10BD0000A00000208C
:104C400013B50446012201A9204600F001F81CBD5D
:104C5000F8B505460E4617460022FF2101310B48E4
:104C6000FCF761FC80212943084600F02FF800245E
:104C700004E0305D00F02AF8601CC4B2BC42F8DBEE
:104C8000012211020148FCF74EFCF8BD000400505F
:104C900070B504460D462A4621460020FFF7D8FF8E
:104CA00070BD704710B5002208210248FCF73BFC9C
:104CB00010BD00000004005010B501220821024878
:104CC000FCF731FC10BD00000004005001B582B0BB
:104CD0003220012301AA02A900900348FDF776FBC8
:104CE000684600790EBD0000AC030020704700004C
:104CF00000B599B034210CA8FBF76FFB142107A86D
:104D0000FBF76BFB1C216846FBF767FB1E4800683E
:104D10000321C90288430121C90240181A490860C9
:104D200002200C9001200F9010201090022015906E
:104D30000021169141041791410518910CA8FCF728
:104D400093FF002801D0FCF7C4FA0F20079003203E
:104D50000890002009900A900B90012107A8FCF709
:104D6000A5FD002801D0FCF7B4FA03200090002034
:104D7000029003906846FCF785FC002801D0FCF700
:104D8000A8FA19B000BD0000007000407047000094
:104D900010B50248FDF7B7FD10BD00008C050020DE
:104DA00010B50248FDF7AFFD10BD0000440400201F
:104DB00010B50248FDF7A7FD10BD00000404002057
:104DC00010B5026801239B07984205D0154B984205
:104DD00002D0154B984205D170241346A3431A46BE
:104DE0004B681A4301239B07984205D00D4B98420C
:104DF00002D00D4B984206D1032424021346A3434C
:104E00001A46CB681A4380241346A3430C692343F4
:104E10001A4602608B68C3620B6883620123436198
:104E200010BD0000000801400014014070B50C46A0
:104E30008168FF2636020D46B54329461D021543FB
:104E400025432943816070BD10B50A4681687024EE
:104E50000B46A3431946072313431943816010BD32
:104E600070B50B461446026A056A6D086D0005624E
:104E70008169F0260D46B5432946250129430A26B6
:104E80001546B5432A4615461D432A4681610262EE
:104E900070BD70B50B461446056A1026B543056211
:104EA0008169026A0F2636030D46B543294625035C
:104EB0002943A0261546B5432A461D012A43816190
:104EC000026270BD818CC907C90F002908D0016832
:104ED0004968012252049143826A11430268516079
:104EE0000222416A1140022907D101684968D203B0
:104EF0009143C26A1143026851600422416A114021
:104F0000042907D10168496812049143026B1143D7
:104F1000026851600822416A1140082907D10168DE
:104F2000496812039143426B114302685160102299
:104F3000416A1140102907D1016889681202914322
:104F4000826B1143026891602022416A114020293E
:104F500007D10168896812029143C26B114302684C
:104F600091604022416A1140402915D10168496889
:104F700092039143026C11430268516001221205B1
:104F8000016C914208D1016849680322520591439E
:104F9000426C1143026851608022416A11408029AD
:104FA00007D10168496812039143826C114302687A
:104FB0005160704738B50446002180200151FCF74C
:104FC000B9FA0546206800680821084008280BD176
:104FD00014482B46002289040090204600F010FB64
:104FE000002801D0032038BD206800680421084053
:104FF00004280BD10B482B460022090500902046BF
:1050000000F0FEFA002801D00320ECE72020A06782
:10501000E0670020206600BF00217420015500BF1A
:105020000020E0E7FFFFFF01F8B504465C20075BC6
:10503000E06F222863D12068406A86B2656D3046F1
:1050400038402880606D801C60655A20005B401EDF
:1050500081B25A200153005B002856D100BF00F0F6
:10506000BFFB0090012000F0BEFB20680068FF211C
:105070002131884321680860009800F0B4FB00BF2C
:1050800000BF00F0ADFB0090012000F0ACFB2068F9
:1050900080684008400021688860009800F0A3FB09
:1050A00000BF2020E06700206066206E012822D12A
:1050B0000020206600BF00F093FB0090012000F06C
:1050C00092FB2068006810218843216808600098DE
:1050D00000F089FB00BF2068C0691021084000096A
:1050E000002802D01020216808625820015B204669
:1050F000FDF715FD09E02046FDF704FE05E02068F8
:1051000080690821084321688861F8BDF8B5044624
:105110005C20065BE06F222863D12068406A85B27C
:10512000F0B22840616D0870606D401C60655A20C7
:10513000005B401E81B25A200153005B002856D10B
:1051400000BF00F04DFB0746012000F04CFB20683B
:105150000068FF212131884321680860384600F04B
:1051600042FB00BF00BF00F03BFB0746012000F000
:105170003AFB206880684008400021688860384613
:1051800000F031FB00BF2020E06700206066206E49
:10519000012822D10020206600BF00F021FB074635
:1051A000012000F020FB206800681021884321685E
:1051B0000860384600F017FB00BF2068C069102166
:1051C00008400009002802D01020216808625820F9
:1051D000015B2046FDF7A3FC09E02046FDF792FDA8
:1051E00005E0206880690821084321688861F8BDCE
:1051F000F0B587B0044600200390B8492068884283
:1052000000D100E000BF2169A0680843616908433C
:10521000E1690843059020680068B1490840059994
:105220000843216808602068406803210903884317
:10523000E168084321684860A0690590A749206893
:10524000884203D0206A0599084305902068806849
:105250000B2109028843059908432168886000BF33
:10526000A0492068884217D19F48C0688007800FF6
:10527000002806D0012808D0022804D0032808D12D
:1052800005E0012607E0022605E0042603E00826E3
:1052900001E0102600BF3BE094492068884217D106
:1052A0009148C0680C210840002806D0042808D086
:1052B000082804D00C2808D105E0002607E00226C3
:1052C00005E0042603E0082601E0102600BF1FE0E9
:1052D0008249206888421AD18348C0680321890224
:1052E0000840002808D001218902401A08D0401A3D
:1052F00004D0401A08D105E0002607E0022605E0A8
:10530000042603E0082601E0102600BF00E0102676
:1053100000BF72492068884251D1002E06D0022E6B
:1053200008D0042E12D0082E17D113E0FCF700FC91
:10533000054616E06C484038006810210840000916
:10534000002801D06A4D00E06A4D0AE0FCF714FC29
:10535000054606E00125ED0303E00025012003904A
:1053600000BF00BF002D0AD0606841004018A8426D
:1053700003D860680003A84202D201200390A6E08F
:10538000606802902846FF21013100F0C6F962688A
:10539000520800238018594101910090029AFAF7AF
:1053A00019FF0746032109028F4205D3524887425D
:1053B00002D82068C7608AE00120039087E00121BD
:1053C000C903E069884247D1330000F0BEF90906FD
:1053D0000A0E211A2121211E2100FCF7A9FB0546F6
:1053E0001AE0FCF7B7FB054616E03F484038006876
:1053F000102108400009002801D03D4D00E03D4D3E
:105400000AE0FCF7B9FB054606E00125ED0303E0E1
:1054100000250120039000BF00BF002D57D06A0077
:1054200063685B08D0186168FAF7D9FF87B2102F5C
:105430000FD3324887420CD830480F383840049098
:105440003807400F04990843049004982168C86005
:105450003DE0012003903AE0330000F076F90906C0
:105460000A0E211A2121211E2100FCF761FB0546AD
:105470001AE0FCF76FFB054616E01B484038006851
:10548000102108400009002801D0194D00E0194DF5
:105490000AE0FCF771FB054606E00125ED0303E099
:1054A00000250120039000BF00BF002D0FD06168D0
:1054B0004A085019FAF793FF87B2102F05D30F4807
:1054C000874202D82068C76001E0012003900020D5
:1054D0006066A066039807B0F0BD00000048004079
:1054E000F369FFEF003801404010024000440040E3
:1054F00000093D000024F400FFFF0F00FFFF000043
:10550000F8B504460E4615466665582005535A20E0
:1055100005530020606600BF01210903A06888428E
:105520000AD12069002803D132495C20015324E0CC
:10553000FF215C20015320E0A06800280AD12069E7
:10554000002803D1FF215C20015316E07F215C205D
:10555000015312E001210907A06888420AD120699D
:10556000002803D17F215C20015306E03F215C200D
:10557000015302E000215C20015300BF0021802084
:1055800001512220E06700BF00F02AF90746012000
:1055900000F029F9206880680121084321688860AB
:1055A000384600F020F900BF01210903A0688842B5
:1055B00005D12069002802D10F48606601E00F483C
:1055C000606600BF00217420015500BF00BF00F0DD
:1055D00007F90746012000F006F920680068FF215E
:1055E0002131084321680860384600F0FCF800BF0C
:1055F0000020F8BDFF010000295000080D510008EF
:10560000FFB581B004460D4617460A9E78E0701C2F
:10561000002875D0FBF78EFF0499401AB04201D8DC
:10562000002E2DD100BF00F0DBF80090012000F02B
:10563000DAF820680068FF21A131884321680860FA
:10564000009800F0D0F800BF00BF00F0C9F800904B
:10565000012000F0C8F820688068400840002168F8
:105660008860009800F0BFF800BF2020A067E067C6
:1056700000BF00217420015500BF032005B0F0BD1C
:105680002068006804210840002839D02068C069DB
:1056900049020840C00A002832D008462168086242
:1056A00000BF00F09DF80090012000F09CF82068F9
:1056B0000068FF21A131884321680860009800F04C
:1056C00092F800BF00BF00F08BF80090012000F0BE
:1056D0008AF8206880684008400021688860009847
:1056E00000F081F800BF2020A067E0672021802023
:1056F000015100BF00217420015500BF0320BDE708
:105700002068C0692840A84201D1012000E00020A3
:10571000B84200D17BE70020B0E7F8B582B28BB287
:10572000040C0D0C10465843002126465E43370CEE
:1057300036048019794116466E43370C36048019B9
:10574000794126466E438919F8BD30B47446641E0B
:105750002578641CAB4204D3635D5B00E31830BC66
:1057600018471D46F8E7000010B5002819DB1A4A53
:1057700003231B02D21883089B00D2588307DC0E38
:10578000FF23A3409A438B071B0E8407E40EA3401C
:105790001A43114B032424021B198408A4001A5134
:1057A00018E00E4A03071B0F083B9B089B00D258CA
:1057B0008307DC0EFF23A3409A438B071B0E84074D
:1057C000E40EA3401A43054B0407240F083CA40829
:1057D000A4001A5110BD000000E100E01CED00E043
:1057E000EFF31080704780F310887047002000218D
:1057F00000BF07E0002100E0491C7D22D200914259
:10580000FADB401C7D22D2009042F3DB704700009F
:10581000FBF7A2FEFFF76CFAFDF7C8FBFDF790FC63
:10582000FDF724FDFDF744FDFDF7ACFCFDF7E4FCBE
:105830002148FAF751FD85B2204B2A461E492048DF
:10584000FDF761FA07221F491D48FDF70BFAFDF726
:1058500037FE1D4908600968086880471A490968C9
:10586000886880470022FF21013105200007FBF7EF
:105870005AFE0121C90205200007FBF741FE01285D
:1058800001D1012400E00024002C05D001221103E5
:105890000E48FBF748FE05E00022012109030B48F2
:1058A000FBF741FE06E0002C02D0FDF725FD01E0EC
:1058B000FDF7B0FDF7E70000BB000020FFFF000090
:1058C00084040020CF000020A80000200004005025
:1058D000F0B513B406460199FBF7F4FB04460D46F8
:1058E00002460B4630460199FAF7B3FF0646019887
:1058F0001B4B0F4600280CDA0022304600F040F81F
:105900000CD90022174B3046394600F06BF81DD2F7
:1059100014E00022304600F033F808D20022124B87
:1059200020462946FAF795FF04460D460EE0002270
:105930000C4B3046394600F055F807D800220A4B88
:1059400020462946FAF778FF04460D46019A690079
:105950004908D20FD2072046114303B0F0BD000022
:105960000000E0BF0000E03F0000F03F10B5012163
:1059700049030248FBF7CDFD10BD000000080050B0
:1059800070B501250C002D051C4310D4EC4206D443
:10599000AC420AD4994200D070BD904270BDE94239
:1059A00017D4EB4215D4994270BD894270BDEC42C8
:1059B00006D5AC42F9D58B4200D070BD824270BD95
:1059C0006D004C00EC4204D25C00EC4201D28B42F0
:1059D00070BD034C30B4FBF72DFB30BC70BD00BF75
:1059E0001900160470B501251C002D050C4310D4B8
:1059F000EC4206D4AC420AD48B4200D070BD824245
:105A000070BDEB4217D4E94215D48B4270BD9B4266
:105A100070BDEC4206D5AC42F9D5994200D070BDBC
:105A2000904270BD6D005C00EC4204D24C00EC4230
:105A300001D2994270BD0FB4034C0CBC03BC30B40E
:105A4000FBF7F8FA30BC70BD1900160420AEA03682
:105A5000E07D0B37A017083660F0AF3660F0AF3648
:105A6000403D2E36C0AFD235000D993620A56336A5
:105A700080A331374061223760DE353640466B36D1
:105A8000A032BF36A032BF36A00ECB35E06254360E
:105A9000A0443937A00ECB35809AF436001F133757
:105AA000E050DA3540466B36809AF43680A33137C1
:105AB000807F3D360016D636A03BFC36C0C14C3642
:105AC000809AF43660DE353680A33137809AF4361A
:105AD0008091B73660022A3700FB1E3660F0AF3681
