:020000040800F2
:100000005009002065010008312600084121000840
:1000100000000000000000000000000000000000E0
:10002000000000000000000000000000A127000800
:10003000000000000000000035260008E52C000844
:1000400077010008770100087701000877010008B0
:100050007701000877010008770100088B07000886
:100060000000000077010008770100087701000810
:10007000770100087701000800000000B52D000896
:1000800000000000770100080000000000000000F0
:10009000952D000800000000A52D0008770100083C
:1000A0007701000877010008770100087701000850
:1000B0007701000877010008000000000000000040
:1000C00000F002F800F03EF80CA030C80838241800
:1000D0002D18A246671EAB4654465D46AC4201D180
:1000E00000F030F87E460F3E0FCCB6460126334274
:1000F00000D0FB1AA246AB4633431847E437000052
:1001000004380000103A02D378C878C1FAD85207F0
:1001100001D330C830C101D504680C6070470000BD
:100120000023002400250026103A01D378C1FBD813
:10013000520700D330C100D50B6070471FB51FBDFB
:1001400010B510BD00F0F0FA1146FFF7F7FF03F00D
:1001500005FA00F008FB03B4FFF7F2FF03BC00F060
:100160000DFB00000748804707480047FEE7FEE711
:10017000FEE7FEE7FEE7FEE704480549054A064BB1
:1001800070470000912D0008C100000850030020B6
:10019000500900205005002050050020FEB50546FE
:1001A00010460C46184373D0AE468C460020AD1A5C
:1001B00001469C4167D36646002701243D46B61A96
:1001C0009D4102D313463A462124654676462F04C4
:1001D000360C3E432D0CB61A9D4104D3150C1B045E
:1001E0002B4312041034654676462F06360A3E43EA
:1001F0002D0AB61A9D4104D3150E1B022B43120281
:100200000834654676462F0736093E432D09B61A4F
:100210009D4104D3150F1B012B431201241D65467C
:100220007646AF07B6083E43AD08B61A9D4104D3E3
:10023000950F9B002B439200A41C65467646EF0762
:1002400076083E436D08B61A9D411AD392185B4159
:10025000641C16E00018764665464941B71A9D4170
:100260000191009009D36046B11A98418E468446A8
:10027000009801990025401C6941DD0752082A4376
:100280005B08641EE6D57246634603B0F0BDFFE727
:1002900000200146C046C0462A462346F5E701E055
:1002A00004C0091F0429FBD28B0701D50280801CE2
:1002B000C90700D00270704700290BD0C30702D0D5
:1002C0000270401C491E022904D3830702D5028014
:1002D000801C891EE3E70022EEE70022DFE7002210
:1002E00003098B422CD3030A8B4211D300239C4673
:1002F0004EE003460B433CD4002243088B4231D3EB
:1003000003098B421CD3030A8B4201D394463FE07E
:10031000C3098B4201D3CB01C01A524183098B42DE
:1003200001D38B01C01A524143098B4201D34B01C7
:10033000C01A524103098B4201D30B01C01A52412A
:10034000C3088B4201D3CB00C01A524183088B42B1
:1003500001D38B00C01A524143088B4201D34B009A
:10036000C01A5241411A00D201465241104670470C
:100370005DE0CA0F00D04942031000D34042534011
:1003800000229C4603098B422DD3030A8B4212D3D1
:10039000FC22890112BA030A8B420CD38901921103
:1003A0008B4208D3890192118B4204D389013AD040
:1003B000921100E08909C3098B4201D3CB01C01A15
:1003C000524183098B4201D38B01C01A5241430928
:1003D0008B4201D34B01C01A524103098B4201D316
:1003E0000B01C01A5241C3088B4201D3CB00C01A83
:1003F000524183088B4201D38B00C01A5241D9D29B
:1004000043088B4201D34B00C01A5241411A00D21B
:100410000146634652415B10104601D34042002B17
:1004200000D54942704763465B1000D3404201B596
:100430000020C046C04602BD7047704770470000AC
:100440000346CA02400D10B510430A1504D001241A
:10045000E4072043002A05DB0A4CA21A04D4D0404A
:10046000FF2A00DD002010BD4A00002B01D0012032
:1004700000E00020101801225205D042F2D8C8171F
:10048000C04310BD1E0400001F22030C02D10F2226
:10049000000402D0030E03D004E0002001467047A0
:1004A0000002083A030F01D10001121F830F01D18E
:1004B0008000921E002801DB4000521E12055118D8
:1004C0004205C012411810467047C10FC90700D03D
:1004D0004042012292071143D6E701218907D3E761
:1004E000F0B58B4C0F09254689B0BD437BD01D0963
:1004F0002646AE43FAD00E465E402740F60F3E43F6
:10050000254071D024012142FBD0FF24AD19A40461
:100510002D1B039501252D05DB02DB0AC9022B43A8
:10052000C90A29431E010901040F130F05012143C4
:100530001701880B820391432D098C46A90B1E439A
:100540008A039543B30B9A0396433F09BA0B94036E
:10055000A74302962E467E430497B6464E19D719F6
:100560000C460196544305977E43371B7646BF1BC6
:100570003601B646BE0B361900967646BC043719CE
:10058000009C01D3641C00946400002F01D001265C
:100590003443029E049F754366467E43049676006C
:1005A00034196E0034190094029C019E1C19664394
:1005B000751BAE46069465464519059C05956C432A
:1005C000594375460891691A0191049E01465143A9
:1005D000A41B0491611A009C0791E10605D06109F2
:1005E0000122114302E072E06EE06109089D0027DC
:1005F0002C0A2D066918049D7C412A0A2D066918CB
:10060000019D6241AC0DAD026D185441079A910DE8
:10061000920255196141029A644658435443069B1D
:10062000059A5A43121A131B9A0E9B015B187A41C2
:10063000010B0005C3185141220A200644195A41F2
:100640009A4200D2491C01204002814203D3152363
:100650000226F64302E014230326F6432020C51A9F
:10066000A9401746AF40DA400A4320460399D840D4
:100670000914731819055118039A3843D2075140C9
:10068000AC4009D00122944006D30022401C5141C5
:10069000002C01D1400840001E4A934212D301228F
:1006A00003989206904207DB0520400709181A4874
:1006B0000143C012414004E0032040070818C10F65
:1006C000C907002009B0F0BD0020F107FAE70518BE
:1006D0000C464C4111486D42A04115D394181A465E
:1006E0005A410E48644290410ED301204A00400511
:1006F000824209D35A00824206D35940C90F084AA0
:10070000C90700201143DDE700200649DAE70000B1
:100710000000FF07FE070000FFFFFF7F0000E0FF73
:100720000000F07F0000F87F754600F023F8AE4629
:10073000050069465346C008C000854618B020B57C
:10074000FFF71AFD60BC00274908B6460026C0C561
:10075000C0C5C0C5C0C5C0C5C0C5C0C5C0C5403D79
:1007600049008D4670470446C046C0462046FFF704
:10077000F2FC000000487047F002002001491820F8
:10078000ABBEFEE726000200704710B50120400313
:1007900000F01EF80120800300F01AF80120C003C9
:1007A00000F016F810BD72B600BFFEE70148006801
:1007B000704700007000002010B50446034801F0A7
:1007C00069FA024801F030FA10BD0000280100204B
:1007D00010B50446054840692040002804D003486D
:1007E00044612046FFF7E8FF10BD0000000401400F
:1007F00070B503460A46002100240020DCE00126F3
:100800008E40156835402C46002C79D01579AD07FF
:10081000AD0F012D04D01579AD07AD0F022D18D104
:1008200098684E000325B5400646AE4330464E005C
:10083000D568B54028439860586801258D40064624
:10084000AE4330461026556835402D098D4028436B
:1008500058601579AD07AD0F032D0BD0D8684E0049
:100860000325B5400646AE4330464E009568B54078
:100870002843D8601579AD07AD0F022D15D1CD08ED
:10088000AE001D462035A8594D07EE0E0F25B54088
:100890000646AE4330464E07F60E1569B54028436E
:1008A000CD08AD001E462036705118684E00032555
:1008B000B5400646AE4330461579AD07AD0F4E0044
:1008C000B540284318600326360455683540002D8E
:1008D00071D03C4D6D6B012635433A4E75633A4DF0
:1008E0008E08B600A8598D072E0F0F25B540064675
:1008F000AE43304605252D07AB4202D1002515E059
:1009000059E0324DAB4201D101250FE0304DAB42F1
:1009100001D102250AE02F4DAB4201D1032505E0AC
:100920002D4DAB4201D1052500E006258E07360F7F
:10093000B5402843244D8E08B600A851274D28689D
:100940000546A54328460126360455683540002D46
:1009500002D0054625432846204D28606868054694
:10096000A54328460126760455683540002D02D05F
:10097000054625432846194D6860A8680546A543E5
:1009800028460126360555683540002D02D005461B
:1009900025432846114DA860E8680546A54328462A
:1009A0000126760555683540002D02D005462543C1
:1009B00028460A4DE860491C1568CD40002D00D03E
:1009C0001DE770BD00100240080001400004005007
:1009D00000080050000C0050001C005000040140B2
:1009E000024613690B40002B01D0012000E00020DB
:1009F000704710B5426913460B401B040C469443E4
:100A00002343836110BD002A01D0816100E081622F
:100A10007047000001480068704700007400002023
:100A20000348006803490978401801490860704785
:100A3000740000207C00002010B5002408480068E5
:100A40004021084306490860032000F00BF8002805
:100A500001D0012401E000F05DF8204610BD000047
:100A600000200240F0B587B0044600222146142041
:100A700000F06EF8142000F05DF82048406B04216F
:100A800008431E494863694602A800F099FA06988F
:100A900001900198002803D100F0CCFA064602E04C
:100AA00000F0C8FA460000F0C5FA06461449304680
:100AB000FFF715FC471E13481349086013491248F5
:100AC000C160476000210161816001F057F805466F
:100AD000002D10D10C4801F0A7F80546002D0AD1D1
:100AE000042C07D200222146142000F031F80848D7
:100AF000046000E00125284607B0F0BD0010024068
:100B000040420F0000080140B0020020E70300004F
:100B1000780000200648406B0121084304494863DF
:100B20000846806B09040843014988637047000048
:100B3000001002400146002905DBCB06DB0E012236
:100B40009A40024B1A6000BF7047000000E100E0CD
:100B500070B504460D4616462946204602F0AAFC0A
:100B600070BD0000F8B50446002720212068084029
:100B700020287BD120680840202800D100BF804871
:100B8000806B012109070840002805D17C48806B53
:100B900008437B49886301277A480068FF210131B7
:100BA0000840002816D17748006808437549086056
:100BB000FFF730FF064606E0FFF72CFF801B642896
:100BC00001D90320F8BD6F480068FF2101310840BA
:100BD0000028F1D06A480568032109050D406068C6
:100BE0000840A8420DD0091160680840884208D129
:100BF00063480068012149040840884201D101206E
:100C0000E0E75F48403000690321090408400546D9
:100C1000002D3DD060680840A84239D020212068CE
:100C20000840202834D15648403000690321090487
:100C3000884305465248403000690121C9040843F1
:100C40004F4940310861084600690121C9048843C1
:100C50004B494031086108460561801528408915D7
:100C6000884215D1FFF7D6FE064608E038E0FFF7C8
:100C7000D1FE801B4449884201D90320A2E74048A5
:100C800040300069012149020840400A0028EED0A6
:100C900000BF00BF032109046068084088420AD1F0
:100CA0003748006809018843032212056168114032
:100CB00008433349086000BF3148403000690322CF
:100CC00012046168114008432D494031086100BF9A
:100CD000012F05D12A48806B8905884328498863FC
:100CE0002078C007C00F002809D025484030C068D0
:100CF00080088000A168084321494031C860022172
:100D000020680840022809D11D484030C0680C21E5
:100D10008843E16808431A494031C86004212068CB
:100D2000084004280AD116484030C06803218902CF
:100D300088432169084312494031C860082120686E
:100D4000084008280AD10E484030C0680321090332
:100D50008843616908430A494031C860802120689E
:100D6000084080280AD106484030C0680321890421
:100D70008843A169084302494031C860002021E747
:100D8000001002400070004088130000F8B50446CF
:100D90000E46002C01D10120F8BD83480068C00731
:100DA000C00FB04218D2804800684008400030436D
:100DB0007D490860FFF72EFE054607E0FFF72AFE93
:100DC000401B7A49884201D90320E5E7764800684C
:100DD000C007C00FB042F1D10221206808400228AC
:100DE00007D17348C068F0218843A168084370495F
:100DF000C8602078C007C00F00284CD06068022867
:100E000009D16B480068012149040840400C0028C2
:100E100024D10120C0E76068032809D16448006834
:100E2000012149060840400E002817D10120B3E7F0
:100E30006068012808D15E480068042108408008E5
:100E400000280BD10120A7E7594800680121490279
:100E50000840400A002801D101209DE75448C0689D
:100E600080088000616808435149C860FFF7D2FDDF
:100E70000546606802280FD107E0FFF7CBFD401B55
:100E80004A49884201D9032086E74948C0680C21B5
:100E900008400828F1D134E0606803280FD107E04A
:100EA000FFF7B8FD401B4149884201D9032073E791
:100EB0003F48C0680C2108400C28F1D121E060684F
:100EC00001280FD107E0FFF7A5FD401B37498842F5
:100ED00001D9032060E73648C0680C210840042887
:100EE000F1D10EE007E0FFF795FD401B2F49884246
:100EF00001D9032050E72E48C0680C210840002883
:100F0000F1D129480068C007C00FB04218D926485F
:100F1000006840084000304323490860FFF77AFD2D
:100F2000054607E0FFF776FD401B2049884201D9BE
:100F3000032031E71C480068C007C00FB042F1D160
:100F4000042120680840042808D11948C0680721F6
:100F500009028843E16808431549C86008212068F0
:100F60000840082809D11248C0680721C9028843EF
:100F70002169C90008430E49C86000F06DF80C49AA
:100F8000C968F022114009090A4A515CC8400A495F
:100F900008600A480068FFF765FD0746002F01D08A
:100FA0003846F9E60020F7E60020024088130000EA
:100FB00000100240BC3800088000002078000020AB
:100FC0000F2202600D4AD2689207920F42600B4ACC
:100FD000D268F0231A408260084AD26807231B02B5
:100FE0001A40C260054AD268DB001A40D20802618A
:100FF000034A1268D207D20F0A60704700100240FD
:101000000020024001480068704700008000002076
:1010100000B5FFF7F7FF0549C96807221202114022
:10102000090A034A515CC84000BD0000001002409C
:10103000CC38000800B5FFF7E5FF0549C96807226D
:10104000D2021140C90A034A515CC84000BD0000E9
:1010500000100240CC380008F0B585B03548C068B3
:1010600003900C2103980840002852D0042804D093
:1010700008280CD00C284BD10BE02E48006810211A
:101080000840002801D02C4D00E02C4D4EE02C4DA6
:101090004CE00F21890403980840800C29490F5C1B
:1010A0000321890503980840800D441C2148C0682D
:1010B00001210904084000280BD02148394602F0DC
:1010C000D2F92246002301910090FFF767F8064607
:1010D0001CE0184800681021084000280BD0164872
:1010E000394602F0C0F92246002301910090FFF733
:1010F00055F806460AE01148394602F0B4F922468E
:10110000002301910090FFF749F8064635460DE0AF
:1011100000BF08484068072149030840400B02907F
:101120000298401C01218140CD0300BF00BF28462A
:1011300005B0F0BD0010024000093D000024F4009D
:1011400000127A00D4380008FEB50446002C01D104
:101150000120FEBDF948C6680C210E40C768012178
:1011600009040F402078C007C00F002872D0082E55
:1011700004D00C2E0FD1084687420CD1EF480068EE
:10118000012149040840400C002863D06068002811
:1011900060D10120DDE700BF0121090460688842B9
:1011A00005D1E64800680843E449086027E00521C6
:1011B0000904606888420ED1E04800680121890472
:1011C0000843DE4908600846006801210904084315
:1011D000DA49086013E0D94800680121090488430E
:1011E000D6490860084600680121090408400090BB
:1011F00000BFD248006889008843D049086000BF1A
:101200006068002813D0FFF705FC054606E0FFF7ED
:1012100001FC401B642801D903209AE7C7480068F5
:10122000012149040840400C0028F0D012E0FFF7EB
:10123000F1FB054606E0FFF7EDFB401B642801D9F2
:10124000032086E7BD480068012149040840400C9E
:101250000028F0D102212068084002287BD1E068F4
:101260000290042E03D00C2E35D1002F33D1B34879
:101270000068042108408008002804D00298002853
:1012800001D1012065E7AD4840681F21090288436C
:10129000216909020843A9494860084600680921F4
:1012A000884302990843A5490860FFF7D5FEA34982
:1012B000C968F02211400909A14A515CC840A149FE
:1012C0000860A1480068FFF7CDFB01900198002855
:1012D00041D001983DE70298002824D09748006843
:1012E000092188430299084394490860FFF792FB5B
:1012F000054606E0FFF78EFB401B022801D90320BC
:1013000027E78E4800680421084080080028F1D0B3
:101310008A4840681F21090288432169090208435D
:101320008649486017E085480068400840008349C6
:101330000860FFF76FFB054606E0FFF76BFB401BFD
:10134000022801D9032004E77C48006804210840F2
:1013500080080028F1D1102120680840102868D1A9
:10136000002E37D17548006849010840400A00281E
:1013700004D0A069002801D10120EAE66F48406846
:10138000072149038843216A08436C49486008469D
:1013900040680002000A217F090608436749486047
:1013A000206A400B401C01218140C8036349C96881
:1013B000F02211400909624A515CC8406149086045
:1013C00061480068FFF74EFB0190019800284BD060
:1013D0000198BEE6A06900282CD058480068FF217B
:1013E0000131084355490860FFF714FB054606E044
:1013F000FFF710FB401B022801D90320A9E64F4844
:101400000068012149020840400A0028F0D04B48FA
:101410004068072149038843216A084347494860D7
:10142000084640680002000A217F09060843434934
:10143000486019E041480068FF21013188433F4975
:101440000860FFF7E7FA054606E0FFF7E3FA401BFE
:10145000022801D903207CE63848006801214902AE
:101460000840400A0028F0D10821206808400828D8
:1014700039D1606900281BD0304840300069012113
:1014800008432E4940310861FFF7C4FA054606E0DB
:10149000FFF7C0FA401B022801D9032059E627486C
:1014A000403000690221084040080028F0D01AE0CE
:1014B000224840300069400840002049403108611E
:1014C000FFF7A8FA054606E0FFF7A4FA401B02283A
:1014D00001D903203DE61948403000690221084047
:1014E00040080028F0D104212068084004287BD15E
:1014F000002000901148806B89060840002806D122
:101500000E48806B08430D498863012000900F4806
:101510000068FF2101310840002820D10B480068F5
:1015200008430A490860FFF775FA054610E0FFF71F
:1015300071FA401B64280BD903200AE60010024010
:10154000BC380008800000207800002000700040B7
:1015500085480068FF21013108400028E7D000BF1E
:10156000FF210131A068884205D180480069084305
:101570007E49086130E0A06800280DD17B480069F1
:10158000FF2101318843794908610846006909153E
:101590008843764908611FE005210902A068884256
:1015A0000DD1724800690121890208436F49086121
:1015B00008460069891508436C4908610CE06B48CE
:1015C0000069FF21013188436849086108460069C4
:1015D000091588436549086100BFA068002815D037
:1015E000FFF718FA054608E031E0FFF713FA401B51
:1015F0005F49884201D90320ABE55C4800690121BD
:1016000049020840400A0028EFD013E0FFF702FA31
:10161000054607E0FFF7FEF9401B5549884201D90E
:10162000032096E551480069012149020840400A1B
:101630000028EFD10098012808D14C484038806B31
:1016400001210907884349494039886300BF606A1E
:1016500000284CD00C2E69D0606A022848D143483B
:101660004038006801210906884340494039086034
:10167000FFF7D0F9054606E0FFF7CCF9401B02283A
:1016800001D9032065E53948403800680121490641
:101690000840400E0028EFD1E16AA06A0843216BA0
:1016A000084332494039C968FD2212049143084376
:1016B0002E494039C86008460068012109060843E0
:1016C0002A4940390860FFF7A5F9054606E0FFF70B
:1016D000A1F9401B022801D903203AE523484038EC
:1016E0000068012149060840400E0028EFD038E08C
:1016F0001E48403800680121090688431B494039CB
:101700000860FFF787F9054606E0FFF783F9401BFD
:10171000022801D903201CE5144840380068012143
:1017200049060840400E0028EFD11AE0606A0128FF
:1017300000D10EE50D484038C7680120000438404C
:10174000A16A88420BD10F2080043840E16A8842A8
:1017500005D1032080053840216B884201D001204B
:10176000F7E40020F5E40000007000404010024063
:101770008813000010B50446002C01D1012010BDD3
:10178000606A002808D1FF2105316068884200D1D5
:1017900005E00021E16102E0002121616161002199
:1017A000A1625120005D002804D15020015520463F
:1017B00000F048F8022151200155206800684021BE
:1017C000884321680860FF210531606808402122B4
:1017D0009202A168114008430122D202E16811403F
:1017E00008430222216911400843217DC907C90F1E
:1017F00008431202A169114008433822E1691140EF
:1018000008438022216A114008439201A16A1140D5
:10181000084321680860A069000C042108401022D8
:10182000616A11400843216848602068C069D1019D
:1018300088432168C861002060650121512001555D
:1018400000209CE710B586B00446142101A8FEF7DD
:1018500044FD14492068884222D11348406B891402
:1018600008431149486300BF0846C06A0121084384
:101870000D49C8620846C06AC007C00F009000BF8B
:1018800000BFE0200190022002900020039003207E
:1018900004900020059001A905200007FEF7A8FF8D
:1018A00006B010BD0030014000100240FFB587B007
:1018B00004461D46109E0120039000200290E0681F
:1018C000002800D000BF00BF5020005D012802D1D9
:1018D00002200BB0F0BD01215020015500BFFFF7E1
:1018E00099F807465120005D0490606805900695C0
:1018F000049801280DD0FF2105310598884205D1B3
:10190000A068002802D10498042802D00220029086
:10191000E9E00898002804D00998002801D0002D9B
:1019200002D101200290DEE05120005D042802D0A7
:10193000052151200155002060650998A063E587C5
:10194000A58708982063E586A5860020206460644A
:101950002068006840210840402804D020680068C2
:101960000843216808600121C902E06888424FD11C
:101970006068002802D00698012809D1206B0088F1
:101980002168C860206B801C2063E08E401EE086CA
:1019900037E02068806802210840022811D1E08EDB
:1019A00000280ED0039801280BD1206B00882168F5
:1019B000C860206B801C2063E08E401EE086002003
:1019C000039020688068C007C00F00280ED0E08F09
:1019D00000280BD02068C068A16B0880A06B801C19
:1019E000A063E08F401EE08701200390FFF712F80C
:1019F000C01BB04205D3701C002802D00320029007
:101A000071E0E08E0028C4D1E08F0028C1D150E001
:101A10006068002802D00698012809D1206B007860
:101A200021680873206B401C2063E08E401EE08616
:101A300039E02068806802210840022811D1E08E38
:101A400000280ED0039801280BD1206B0078216864
:101A50000873206B401C2063E08E401EE08600204F
:101A6000039020688068C007C00F00280ED0E08F68
:101A700000280BD02068C068A16B0870A06B401CC8
:101A8000A063E08F401EE08701200390FEF7C2FFB5
:101A9000C01BB04202D3701C002801D1002E02D11D
:101AA000032002901FE0E08E0028C2D1E08F0028C2
:101AB000BFD13A463146204600F0C8FD002804D088
:101AC00001200290202060650DE0A068002809D167
:101AD00000BF01902068C068019020688068019074
:101AE00000BF00BF00BF01215120015500BF0021F0
:101AF0005020015500BF0298EBE6000030B50246C9
:101B00000B4600BF3820805C012801D1022030BD87
:101B100001253820855400BF0225392085541068DE
:101B200044681068816870252046A84304461868F8
:101B30000443106844600125AD071068A84207D02F
:101B40000C4D1068A84203D00B4D1068A84207D175
:101B500080250846A8430146586801431068816003
:101B600001253920855400BF00253820855400BF49
:101B70000020CCE7000801400014014010B50446E5
:101B8000002C01D1012010BD3920005D002805D1B5
:101B9000002138200155204600F018F80221392094
:101BA0000155211D206801F00DF901213E2001554C
:101BB00000BF3A2001553B2001553C2001553D20F6
:101BC000015500BF392001550020DCE710B504465F
:101BD00001218907206888420ED11148806B0121BC
:101BE00008430F498863002211460F20FEF7B0FF1B
:101BF0000F20FEF79FFF11E00A49206888420DD1AF
:101C00000748406B202108430549486300221146DC
:101C10001620FEF79DFF1620FEF78CFF10BD00007A
:101C2000001002400014014001463920405C0128A8
:101C300001D0012070470223392043540868C0684E
:101C4000012318430B68D86001239B07086898425A
:101C500007D00E4B0868984203D00D4B0868984295
:101C60000CD1086880684207520F062A0CD0086819
:101C70000068012318430B68186005E008680068D5
:101C8000012318430B6818600020D3E700080140C7
:101C90000014014001460868C068400840000A6816
:101CA000D06000BF0868006A074A1040002805D1CC
:101CB00008680068400840000A68106000BF012200
:101CC000392042540020704711110000F8B5044635
:101CD0000D460020009000BF3820005D012801D192
:101CE0000220F8BD01213820015500BF0221392012
:101CF0000155206886687721304688430646FF21D3
:101D000009023046884306462068866028685028C5
:101D100034D00CDC202851D004DC00284CD0102812
:101D200052D14AE030284AD040284DD13AE06028CC
:101D30002ED0702807D001210903401A02D0401A82
:101D400042D10DE043E0EB686A68A968206801F0C1
:101D50006FF820688668772006432068866036E042
:101D6000EB686A68A968206801F062F820688068FA
:101D70000121890308432168886028E0EA686968CE
:101D8000206801F06FF85021206801F05FF81EE034
:101D9000EA686968206801F07EF86021206801F037
:101DA00055F814E0EA686968206801F05BF84021A2
:101DB000206801F04BF80AE000BF00BF00BF2968AF
:101DC000206801F043F802E00120009000BF00BF4E
:101DD00001213920015500BF00213820015500BFE5
:101DE00000987EE7704710B504462068006902211C
:101DF0000840400800281CD02068C06808404008FF
:101E0000002816D0481F216808610120207620682C
:101E100080698007800F002803D02046FFF7E2FF8B
:101E200005E0204600F09DF8204600F09BF80020D9
:101E300020762068006904210840800800281DD011
:101E40002068C06808408008002817D0C84321686F
:101E50000861022020762068806903210902084079
:101E6000002803D02046FFF7BDFF05E0204600F024
:101E700078F8204600F076F8002020762068006987
:101E800008210840C00800281CD02068C06808400D
:101E9000C008002816D0C8432168086104202076B5
:101EA0002068C0698007800F002803D02046FFF714
:101EB00099FF05E0204600F054F8204600F052F863
:101EC00000202076206800691021084000090028C1
:101ED0001DD02068C06808400009002817D0C843FA
:101EE00021680861082020762068C0690321090262
:101EF0000840002803D02046FFF774FF05E0204685
:101F000000F02FF8204600F02DF800202076206801
:101F10000069C007C00F01214840484000280CD08C
:101F20002068C068084048404840002805D0C81EC6
:101F300021680861204600F017F8206800694021F8
:101F40000840800900280BD02068C068084080093C
:101F5000002805D0C84321680861204600F04EF8EB
:101F600010BD70477047000070B5044600251D493C
:101F70002068884201D1FEF753FD1B492068884242
:101F800028D11A4800781A490978884216DA0122BD
:101F9000110205200007FEF736FD00E06D1C012D43
:101FA000FCDB0022FF21013105200007FEF72BFD9D
:101FB0000E480078401C0D49087012E000200B49C3
:101FC00008700C48FFF766FE012211030A48FEF76D
:101FD0001AFD06E0012189072068884201D100F03E
:101FE0003FF970BD000801400014014000000020CE
:101FF000010000206801002000040050704710B567
:102000000446002C01D1012010BDA069002800D099
:1020100000E000BFA06F002805D100217420015509
:10202000204600F02BF82420A067206800684008B4
:10203000400021680860204600F0F8FF012800D128
:10204000E2E7606A002802D0204600F03DFF2068E9
:1020500040680921C9028843216848602068806877
:102060002A2188432168886020680068012108438C
:1020700021680860204600F09FFFC5E710B586B0D4
:102080000446142101A8FEF728F92A49206888424D
:1020900025D12948406B012189030843264948631B
:1020A00000BF0846C06A012108432349C8620846A8
:1020B000C06AC007C00F009000BF00BF03204002ED
:1020C000019002200290002003900320049004203D
:1020D000059001A905200007FEF78AFB27E01749B4
:1020E0002068884223D11448806B012149040843A9
:1020F0001149886300BF0846C06A012108430E49A0
:10210000C8620846C06AC007C00F009000BF00BF89
:102110000C200190022002900020039003200490E4
:102120000420059001A905200007FEF761FB06B019
:1021300010BD000000380140001002400044004083
:1021400000BFFEE770B5044601F0F6F90120400338
:10215000844224D174203949087072204870692063
:1021600088706720C87000257D22D200092134A024
:1021700001F04CFB002804D121463448FEF739FC1D
:1021800000E00225202032490870324800784000E3
:102190003149085A314948600846FFF745FD01209A
:1021A0008003844220D12B480078401C29490870C4
:1021B0000A2128480078FEF792F82648017063202B
:1021C0001E490870234800784870214800788870BC
:1021D0007A20C87020201E4908701E4800784000F0
:1021E0001D49085A1D4948600120C003844223D17B
:1021F00020201749087017480078401E15490870BC
:102200000A2114480078FEF76AF81248017063202A
:102210000A4908700F48007848700D4800788870A7
:102220007A20C87020200A4908700A4800784000C7
:102230000949085A09494860002070BD170000206C
:1022400061697468696E6B65720000000008005077
:1022500001000020660000205C00002068010020D2
:1022600010B51E48FFF716FD012149031C48FEF773
:10227000B7FB00280FD10022012109031848FEF7FF
:10228000C2FB012149031748FEF7B3FB01204003BD
:10229000FFF758FF20E0012189031148FEF7A0FB5A
:1022A000002809D1012149030E48FEF7A2FB0120B5
:1022B0008003FFF747FF0FE00121C9030848FEF73D
:1022C0008FFB002808D1012149030648FEF791FB46
:1022D0000120C003FFF736FF002010BD28010020B9
:1022E000000400500008005000B587B0142102A877
:1022F000FDF7F3FF00BF5D48C06A042108435B4956
:10230000C8620846C06A04210840019000BF00BFAF
:1023100000BF5648C06A802108435449C862084635
:10232000C06A80210840019000BF00BF00BF4F4835
:10233000C06A012108434D49C8620846C06AC00707
:10234000C00F019000BF00BF00BF0846C06A022155
:1023500008434649C8620846C06A02210840019005
:1023600000BF00BF002209034148FEF74CFB0022DA
:10237000012109033F48FEF746FB0022FF210131FE
:1023800005200007FEF73FFB01221103052000078F
:10239000FEF739FB012211023648FEF734FB01201B
:1023A000400302900120039000200490059002A9B0
:1023B0002F48FEF71DFA132002900020039004908E
:1023C00002A905200007FEF713FA2B48029000200F
:1023D0000390049002A92748FEF70AFA012000039F
:1023E000029001200390022004900320059002A98E
:1023F0002048FEF7FDF90720400302903120000439
:1024000003900120049002A91A48FEF7F1F9112067
:10241000000202900120039004900320059002A97D
:1024200005200007FEF7E4F90120C0020290002019
:1024300003900120049002A905200007FEF7D8F9B7
:10244000FF200130029001200390049003200590AA
:1024500002A90848FEF7CCF9002211460720FEF732
:1024600077FB0720FEF766FB07B000BD00100240B7
:1024700000080050000400500304000010B50E488E
:102480000E490860FF200530486000210B4881603C
:10249000C160016141610121490281610021C16185
:1024A0000162416281620721C162FFF763F900287E
:1024B00001D0FEF778F910BD00300140D0000020B7
:1024C00000B587B00020039004900590069001901D
:1024D00002901548154908606320486000211348A0
:1024E00081601349C160002101614161FFF746FB32
:1024F000002801D0FEF757F901200003039003A93B
:102500000A48FFF7E3FB002801D0FEF74CF9002052
:102510000190029001A90548FFF7F0FA002801D0C8
:10252000FEF741F907B000BD00140140680100202A
:102530007F3E000000B587B0002003900490059016
:10254000069001900290012080071549086009203B
:1025500048600021124881601249C1600021016178
:102560004161FFF70BFB002801D0FEF71CF90120A9
:102570000003039003A90A48FFF7A8FB002801D035
:10258000FEF711F900200190029001A90448FFF71D
:10259000B5FA002801D0FEF706F907B000BD00002B
:1025A00028010020FF7C000010B50E480E4908608D
:1025B000E1204002486000210B488160C160016158
:1025C0000C21416100218161C16101620020064945
:1025D00048620846FFF713FD002801D0FEF7E3F834
:1025E00010BD000000380140A801002010B50E48C1
:1025F0000E490860E1204002486000210B488160DC
:10260000C16001610C21416100218161C1610162F0
:102610000020064948620846FFF7F1FC002801D077
:10262000FEF7C1F810BD0000004400402C0200205D
:1026300000BFFEE7704738B50446012269462046D0
:1026400000F0CEF86846007838BD0000FEB50446BC
:102650000D461646182119480068FDF740FE07464A
:102660001749FDF73CFE7D21C90048430190FF2139
:102670000531606888420ED12B4600228021204619
:10268000009600F01FF8002815D0606D2021084347
:1026900060650320FEBD00BF0198002800D109E05D
:1026A0000198401E01902068806880210840C00980
:1026B0000028F1D100BF0020ECE7000080000020DE
:1026C00040420F00FFB583B004460D461E46FEF79C
:1026D000A1F90C99401A371AFEF79CF901902F487E
:1026E00000684001000D7843029049E0701C00280A
:1026F00046D0FEF78FF90199401AB84201D2002F57
:1027000037D120684068E021884321684860FF2174
:102710000531606888420ED10121C903A068884252
:1027200003D04911A068884205D120680068402183
:1027300088432168086001214903A06A88420DD1BD
:1027400000BF20680068884321680860206800682E
:102750000121490308432168086000BF012151207D
:10276000015500BF00215020015500BF032007B0D4
:10277000F0BD0298002800D100270298401E029068
:10278000206880682840A84201D1012100E0002192
:1027900005988142AAD10020E9E7000080000020CE
:1027A0007047704710B5012105200007FEF718F9A2
:1027B00010BD10B5022105200007FEF711F910BD6C
:1027C00010B501210148FEF70BF910BD00040050BF
:1027D00010B502210148FEF703F910BD00040050B6
:1027E000F8B505460E461746002000F031FA680697
:1027F000400E00F01DFA002405E0002000F018FA59
:102800003055601CC4B2BC42F7DB012000F020FA56
:10281000F8BDF8B505460E461746002000F018FA38
:1028200080212943084600F003FA002404E0305DCB
:1028300000F0FEF9601CC4B2BC42F8DB012000F0DD
:1028400007FAF8BD10B50446224601210903052008
:102850000007FEF7D8F810BD10B50120FFF7EBFE1A
:10286000F821084010BD000070B500248A480078A7
:10287000030000F010FE0E080A357173757BB4B6C4
:10288000B8CFFCFBFAF9002070BD012000F054F92C
:1028900000210F2000F0DFFD00210D2000F0DBFD06
:1028A000FF211F2000F0D7FDBF21112000F0D3FD34
:1028B0004020FFF7C0FE8506AD0E2946402000F0FF
:1028C000CAFD052000F038F91220FFF7B4FEFDF72D
:1028D0006DFF7249086002206F4908700120D3E73C
:1028E000FFF760FF012808D14021122000F0B3FD5E
:1028F0000320694908700120C6E7FFF75AFF012845
:1029000008D18021122000F0A6FD04206249087041
:102910000120B9E7FDF74AFF044660480068844299
:102920000BD35E480068201A5D490968884211D9B6
:102930000420594908700120A6E758480068C043A0
:10294000201857490968884204D904205249087060
:10295000012099E7012097E7022095E7032093E7FC
:10296000FDF724FF4D49086001208DE7FFF71AFFAE
:10297000012808D10821122000F06DFD07204649EA
:102980000870012080E7FFF70DFF012808D108211A
:10299000122000F060FD07203F490870012073E716
:1029A000FDF704FF04463D48006884420AD33B48D3
:1029B0000068201A3A49096888420ED90820364929
:1029C00008700AE035480068C04320183449096897
:1029D000884202D9082030490870012054E70420B9
:1029E00052E7052050E7012000F0A6F8FA21112057
:1029F00000F031FD0021402000F02DFD072000F007
:102A00009BF8FDF7D3FE254908600A20224908708B
:102A1000012039E7FFF7D4FE012815D10421122047
:102A200000F019FDFFF7D4FE012808D10121122082
:102A300000F011FD0B2018490870012024E70C203C
:102A40001549087001201FE7FDF7B0FE0446134842
:102A5000006884420CD311480068201A642810D9F9
:102A60000D200D4908700CE013E010E00DE00AE0C5
:102A70000A480068C0432018642802D90D2006497E
:102A80000870012000E70620FEE60720FCE608208B
:102A9000FAE60920F8E60000C8000020CC0000207B
:102AA000B800002070B504460D462A462146002095
:102AB000FFF796FE70BD0000FEB506463046FDF7F6
:102AC0000CFD04460E4A0F4BFDF70AFD01910090E4
:102AD000FDF7B6FC06460296002000F02DF8684689
:102AE000817A062000F0B7FC6846417A072000F0A2
:102AF000B2FC6846017A082000F0ADFCFEBD000083
:102B00008DEDB5A0F7C6903F10B50120FFF793FDFE
:102B100080210840002800D010BD002000F00CF8F3
:102B20000120FFF788FD802108430446214601204B
:102B300000F091FC00BFEFE770B50446FFF78CFE94
:102B4000A04200D170BD0120FFF775FDF8210840BB
:102B500020430821084305462946012000F07BFC5C
:102B6000012000F053F800BFECE70000F8B506467E
:102B70000C46154605201E490870FF2C00DDFF2479
:102B8000002D02D01B48056003E07D20C0001949DC
:102B90000860E1B2222000F05EFC00210E2000F06F
:102BA0005AFC00210D2000F056FC0120FFF7C4FF65
:102BB000E1B2304600F020F8F721112000F04BFC84
:102BC0004020FFF738FD8006800E07464037394623
:102BD000402000F040FCFFF747FE0320FFF7ACFF6A
:102BE0001220FFF728FD062001490870F8BD0000FB
:102BF000C8000020B800002070B504460D462A46E3
:102C000021460020FFF705FE70BD0000002106E010
:102C1000064900BF0A464B1E99B2002AFAD1024665
:102C2000431E98B2002AF3D1704700000E1F000027
:102C300001B582B03220012301AA02A90090034805
:102C4000FEF734FE684600790EBD0000D00000207B
:102C500010B504462246FF2101310248FDF7D3FE9C
:102C600010BD00000004005070B506460C4613204D
:102C7000FFF7E1FC05462088A84201DA258800E03C
:102C80002580E9B23046FFF70DFF70BD10B500207A
:102C9000FFF7D8FD0A20FFF7B9FF0120FFF7D2FDAB
:102CA0000A20FFF7B3FF00200149087010BD0000A3
:102CB000C80000200920014908707047C8000020A2
:102CC000002802D00549086003E07D21C900034ABD
:102CD00011600121024A117070470000B800002005
:102CE000C800002002480068401C01490860704785
:102CF0007000002000B599B034210CA8FDF7EDFA62
:102D0000142107A8FDF7E9FA1C216846FDF7E5FA4A
:102D10001E4800680321C90288430121C9024018E6
:102D20001A49086002200C9001200F90102010908A
:102D30000220159000211691410417914105189128
:102D40000CA8FEF701FA002801D0FDF72CFD0F209A
:102D5000079003200890002009900A900B90012111
:102D600007A8FEF713F8002801D0FDF71CFD03208B
:102D700000900020029003906846FDF7F3FE0028C3
:102D800001D0FDF710FD19B000BD0000007000403B
:102D90007047000010B50248FFF725F810BD00008D
:102DA000B002002010B50248FFF71DF810BD00006A
:102DB0006801002010B50248FFF715F810BD0000AB
:102DC0002801002010B5026801239B07984205D016
:102DD000154B984202D0154B984205D170241346EA
:102DE000A3431A464B681A4301239B07984205D018
:102DF0000D4B984202D00D4B984206D10324240279
:102E00001346A3431A46CB681A4380241346A343B0
:102E10000C6923431A4602608B68C3620B688362A5
:102E20000123436110BD000000080140001401406F
:102E300070B50C468168FF2636020D46B54329461B
:102E40001D02154325432943816070BD10B50A4614
:102E5000816870240B46A343194607231343194383
:102E6000816010BD70B50B461446026A056A6D0894
:102E70006D0005628169F0260D46B543294625019E
:102E800029430A261546B5432A4615461D432A46B8
:102E90008161026270BD70B50B461446056A10264A
:102EA000B54305628169026A0F2636030D46B543B4
:102EB000294625032943A0261546B5432A461D0168
:102EC0002A438161026270BD818CC907C90F002944
:102ED00008D001684968012252049143826A114373
:102EE000026851600222416A1140022907D101683B
:102EF0004968D2039143C26A1143026851600422B7
:102F0000416A1140042907D10168496812049143BC
:102F1000026B1143026851600822416A114008297E
:102F200007D10168496812039143426B114302685B
:102F300051601022416A1140102907D10168896847
:102F400012029143826B1143026891602022416A10
:102F50001140202907D10168896812029143C26B90
:102F60001143026891604022416A1140402915D105
:102F70000168496892039143026C114302685160F1
:102F800001221205016C914208D1016849680322AF
:102F900052059143426C1143026851608022416A9C
:102FA0001140802907D10168496812039143826C5E
:102FB000114302685160704738B5044600218020F3
:102FC0000151FDF727FD05462068006808210840EB
:102FD00008280BD114482B46002289040090204673
:102FE00000F0ACF9002801D0032038BD206800684B
:102FF0000421084004280BD10B482B460022090568
:103000000090204600F09AF9002801D00320ECE758
:103010002020A067E0670020206600BF0021742008
:10302000015500BF0020E0E7FFFFFF01F0B587B0CA
:10303000044600200390B8492068884200D100E08F
:1030400000BF2169A068084361690843E16908433A
:10305000059020680068B149084005990843216837
:10306000086020684068032109038843E168084339
:1030700021684860A0690590A7492068884203D06C
:10308000206A059908430590206880680B21090291
:103090008843059908432168886000BFA0492068DB
:1030A000884217D19F48C0688007800F002806D04B
:1030B000012808D0022804D0032808D105E0012601
:1030C00007E0022605E0042603E0082601E01026BA
:1030D00000BF3BE094492068884217D19148C068FE
:1030E0000C210840002806D0042808D0082804D065
:1030F0000C2808D105E0002607E0022605E004269A
:1031000003E0082601E0102600BF1FE08249206886
:1031100088421AD18348C0680321890208400028E8
:1031200008D001218902401A08D0401A04D0401A60
:1031300008D105E0002607E0022605E0042603E0AA
:10314000082601E0102600BF00E0102600BF7249EB
:103150002068884251D1002E06D0022E08D0042EBD
:1031600012D0082E17D113E0FDF752FF054616E0E6
:103170006C4840380068102108400009002801D040
:103180006A4D00E06A4D0AE0FDF766FF054606E07D
:103190000125ED0303E000250120039000BF00BFDF
:1031A000002D0AD0606841004018A84203D860682A
:1031B0000003A84202D201200390A6E060680290BA
:1031C0002846FF21013100F04EF9626852080023C1
:1031D0008018594101910090029AFCF7DFFF0746E1
:1031E000032109028F4205D35248874202D8206842
:1031F000C7608AE00120039087E00121C903E069EC
:10320000884247D1330000F046F909060A0E211A18
:103210002121211E2100FDF7FBFE05461AE0FDF7E6
:1032200009FF054616E03F48403800681021084075
:103230000009002801D03D4D00E03D4D0AE0FDF7BA
:103240000BFF054606E00125ED0303E00025012004
:10325000039000BF00BF002D57D06A0063685B0871
:10326000D0186168FDF73BF887B2102F0FD33248B2
:1032700087420CD830480F38384004903807400F48
:1032800004990843049004982168C8603DE0012037
:1032900003903AE0330000F0FEF809060A0E211A06
:1032A0002121211E2100FDF7B3FE05461AE0FDF79E
:1032B000C1FE054616E01B48403800681021084052
:1032C0000009002801D0194D00E0194D0AE0FDF772
:1032D000C3FE054606E00125ED0303E000250120BD
:1032E000039000BF00BF002D0FD061684A0850193D
:1032F000FCF7F5FF87B2102F05D30F48874202D89D
:103300002068C76001E00120039000206066A0668D
:10331000039807B0F0BD000000480040F369FFEFDC
:1033200000380140401002400044004000093D00C8
:103330000024F400FFFF0F00FFFF0000FFB581B085
:1033400004460D4617460A9E78E0701C002875D08A
:10335000FDF760FB0499401AB04201D8002E2DD130
:1033600000BF00F0E3F80090012000F0E2F82068D0
:103370000068FF21A131884321680860009800F0AF
:10338000D8F800BF00BF00F0D1F80090012000F095
:10339000D0F8206880684008400021688860009864
:1033A00000F0C7F800BF2020A067E06700BF002141
:1033B0007420015500BF032005B0F0BD20680068EF
:1033C00004210840002839D02068C069490208401B
:1033D000C00A002832D008462168086200BF00F009
:1033E000A5F80090012000F0A4F820680068FF21F3
:1033F000A131884321680860009800F09AF800BF66
:1034000000BF00F093F80090012000F092F82068CF
:1034100080684008400021688860009800F089F8C2
:1034200000BF2020A067E06720218020015100BF5D
:1034300000217420015500BF0320BDE72068C0694A
:103440002840A84201D1012000E00020B84200D16C
:103450007BE70020B0E713B50446012201A920460E
:10346000FFF7D7F91CBDF8B582B28BB2040C0D0C76
:1034700010465843002126465E43370C3604801917
:10348000794116466E43370C360480197941264639
:103490006E438919F8BD30B47446641E2578641CE7
:1034A000AB4204D3635D5B00E31830BC18471D4694
:1034B000F8E7000010B5002819DB1A4A03231B02A5
:1034C000D21883089B00D2588307DC0EFF23A34049
:1034D0009A438B071B0E8407E40EA3401A43114B3B
:1034E000032424021B198408A4001A5118E00E4A70
:1034F00003071B0F083B9B089B00D2588307DC0E79
:10350000FF23A3409A438B071B0E8407E40EA340BE
:103510001A43054B0407240F083CA408A4001A51C1
:1035200010BD000000E100E01CED00E0EFF31080B2
:10353000704780F3108870470020002100BF07E02B
:10354000002100E0491C7D22D2009142FADB401CA0
:103550007D22D2009042F3DB70470000A4B0FDF75B
:103560006BFAFFF7C7FBFEF7BFFEFEF787FFFFF71B
:103570001BF8FFF73BF8FEF7A3FFFEF7DBFF2A4A35
:1035800007CA21AB07C32948016821A88847002240
:10359000FF21013105200007FDF735FA0121C9029D
:1035A00005200007FDF71CFA012801D1012400E0E5
:1035B0000024002C05D0012211031D48FDF723FA39
:1035C00005E00022012109031948FDF71CFA8021BA
:1035D00001A8FCF782FEFF20009024E00026002CCA
:1035E00020D1FF200090FF2101A8FCF776FE7D226C
:1035F0001201694601A800F0A7F80546002D04D085
:10360000012D09D0022D0AD107E001214903094803
:10361000FDF7EFF9012604E000BF022601E00326D2
:1036200000BF00BF00BFD9E7B03800088400002009
:10363000000400500008005010B50446FFF7B1F830
:10364000FFF724FB02E06420FFF7E0FA0620FEF714
:10365000F2FF6C28F7D1FFF757FA002C03D0364859
:1036600021460EC90EC0344C6079092801DD0920BD
:103670006071E079042801DD0420E071E07901281F
:1036800001DA0120E071A0790C2801DD0C20A07185
:10369000A079062801DA0620A071042020561428FB
:1036A00001DD142020712068FFF706FA6079234AB3
:1036B000105CE279521E224B9A5C104301461D2099
:1036C000FFF7C9FEA079801F1E4A105C0722104335
:1036D00001461E20FFF7BFFEFF211F20FFF7BBFEA4
:1036E0000C212620FFF7B7FE0420205611280ADD02
:1036F00020797B30C1B20920FFF7ADFE87214D2034
:10370000FFF7A9FE09E020797E30C1B20920FFF75A
:10371000A2FE84214D20FFF79EFE3B210B20FFF7E8
:103720009AFE208901122020FFF795FE217A2120A0
:10373000FFF791FE10BD0000BC000020AB00002090
:10374000A7000020A0000020F7B582B00E46174663
:10375000FDF72CF801900120FFF7EEF900210F2072
:10376000FFF779FE00210D20FFF775FEFF211F20D6
:10377000FFF771FEBF211120FFF76DFE4020FEF71D
:103780005AFF8006800E014600904020FFF763FE3E
:103790000520FFF7D1F91220FEF74DFF35E0FFF7C6
:1037A00001F8012814D140211220FFF754FE132004
:1037B000FEF741FF05463078A84201DA357800E08F
:1037C000357029460298FFF76DF9002005B0F0BD6D
:1037D000FEF7EFFF012805D180211220FFF73BFE05
:1037E0000120F3E7FCF7E2FF044601998C4205D380
:1037F0000198201AB84208D90120E7E70198C04390
:103800002018B84201D90120E0E7C8E7F7B582B037
:1038100007461546FCF7CAFF064622200399FFF724
:103820001AFE00210E20FFF716FE00210D20FFF7E3
:1038300012FE0120FFF780F938460399FFF7DCF903
:10384000F7211120FFF707FE4020FEF7F4FE800667
:10385000800E4030014601904020FFF7FCFD032020
:10386000FFF76AF91220FEF7E6FE1AE0FEF79AFF6C
:10387000012806D108211220FFF7EDFD002005B038
:10388000F0BDFCF793FF0446B44204D3A01BA8424A
:1038900007D90120F3E7F0432018A84201D90120FD
:1038A000EDE7E3E7313233340035363738000000D6
:1038B000C092ED1914070C01050000000000000083
:1038C00000000000010203040607080900000000D0
:1038D00001020304030406080C1018203000000045
:1038E0000039000800000020D0000000040100089A
:1038F000D0390008D0000020800800002001000816
:10390000000814000000000000000000000000009B
:103910000200000000000074000000000000000031
:103920000000000000000000000000727874657361
:103930007400000000000000000000000000000013
:103940000000000000000000000000000000000077
:10395000000000000000000000000000F401E80387
:10396000D0078813102700000000000000000000AE
:103970000000000000000000040000000100000042
:1039800000002000393600088D2C0008C12C0008EA
:10399000692C00086D2B0008B52C00086928000868
:1039A00060708090A0B0C002040608001020304073
:1039B0005060708090000000E8030000C092ED1994
:1039C000140707010F0000000000000000000000C5
:04000005080000C12E
:00000001FF
